:020000040800F2
:10000000380900202902000841200008B91E000814
:100010003D200008A10400083D2A0008000000005F
:100020000000000000000000000000008120000827
:100030007D050008000000007D200008D521000893
:10004000430200084302000843020008430200087C
:10005000430200084302000843020008430200086C
:10006000430200084302000843020008430200085C
:10007000430200084302000843020008430200084C
:10008000430200084302000843020008430200083C
:10009000430200084302000843020008430200082C
:1000A000430200084302000843020008430200081C
:1000B000430200084302000843020008430200080C
:1000C00043020008430200084302000843020008FC
:1000D00043020008A929000843020008430200085F
:1000E00043020008430200084302000843020008DC
:1000F00043020008430200084302000843020008CC
:1001000043020008430200084302000843020008BB
:1001100043020008430200088D2200084302000841
:100120004302000843020008A50400084302000837
:10013000430200084302000843020008430200088B
:10014000430200084302000843020008430200087B
:10015000430200084302000843020008430200086B
:10016000430200084302000843020008430200085B
:100170004302000843020008430200080000000098
:10018000430200084302000800F002F800F03CF8C7
:100190000AA090E8000C82448344AAF10107DA45E2
:1001A00001D100F031F8AFF2090EBAE80F0013F0F8
:1001B000010F18BFFB1A43F001031847A43A0000CF
:1001C000C43A0000103A24BF78C878C1FAD8520760
:1001D00024BF30C830C144BF04680C6070470000C1
:1001E0000023002400250026103A28BF78C1FBD840
:1001F000520728BF30C148BF0B6070471FB503F0DE
:1002000008FD1FBD10B510BD00F014F91146FFF731
:10021000F5FF02F031FD00F032F903B4FFF7F2FF11
:1002200003BC00F035F90000094880470948004741
:10023000FEE7FEE7FEE7FEE7FEE7FEE7FEE7FEE796
:10024000FEE7FEE704480549054A064B70470000F3
:1002500079220008890100083803002038090020AD
:10026000380500203805002053EA020C00F06980B0
:100270002DE9F04B4FF00006002B1FBFB3FA83F5BA
:1002800003FA05F424FA05F65E4012BF1643B2FAEB
:1002900082F502FA05F4C5F120051EBF22FA05FC1D
:1002A00044EA0C04203556EA044C4FEA144418BFC3
:1002B000641C4FF000084FF00009904271EB030CF2
:1002C00039D3002919BFB1FA81F701FA07F6B0FA5C
:1002D00080F700FA07F6C7F120071EBF20FA07FCD7
:1002E00046EA0C062037B6FBF4FCA7EB0507103FE7
:1002F00007F01F0BCBF120062CFA06F60CFA0BFBCD
:1003000044BFB3460026202FA4BF5E464FF0000B2B
:100310005BEA060C08BF4FF0010B19EB0B0948EB29
:100320000608ABFB027C06FB02CC0BFB03CCC01B1C
:1003300071EB0C01C1E70B46024641464846BDE859
:10034000F08B13B54FF000004FF00001AFF30080C9
:10035000BDE81C40704710B5203AC0F00B80B1E8F2
:100360001850A0E81850B1E81850A0E81850203AEA
:10037000BFF4F5AF5FEA027C24BFB1E81850A0E8F3
:10038000185044BF18C918C0BDE810405FEA827C0D
:1003900024BF51F8043B40F8043B08BF7047D20724
:1003A00028BF31F8023B48BF11F8012B28BF20F8C5
:1003B000023B48BF00F8012B70474FF0000200B528
:1003C000134694469646203922BFA0E80C50A0E878
:1003D0000C50B1F12001BFF4F7AF090728BFA0E826
:1003E0000C5048BF0CC05DF804EB890028BF40F8F2
:1003F000042B08BF704748BF20F8022B11F0804F34
:1004000018BF00F8012B704770477047704710B550
:1004100000F008F8006810BD10B5044600F002F8BE
:10042000046010BD0048704710000020004870476D
:10043000100000207546FFF7F9FFAE46050069463B
:10044000534620F00700854618B020B5FFF7FAFEA6
:10045000BDE820404FF000064FF000074FF00008C5
:100460004FF0000BAC46ACE8C009ACE8C009ACE802
:10047000C009ACE8C00921F007018D46704710B5EE
:100480000446AFF300802046BDE81040FFF7C5BE2C
:1004900001491820ABBEFEE72600020070470000AD
:1004A000FEE7000040F2D000C2F2000000F0C4B845
:1004B000D0F800C06FF00F0252FA8CF24AF6AB236C
:1004C000CAF6AA23A2FB0331090907A35B5C40F229
:1004D000FF312CEA01015F2A88BF41F00401C0E925
:1004E00016130846704700BF0006101600061016C7
:1004F0008269816AB2F5005F06D06AB9022912D01A
:10050000012915D0D9B90EE0032918D8DFE801F088
:10051000020B02100120704703293CBF01207047E5
:100520001CBF0020704790F82F0000F001007047BA
:10053000C06AA0F1C070B0FA80F040097047002096
:100540007047000080B5D0F800C0DCF800E02EF461
:10055000802ECCF800E0D0F800C0CCF80430D0F801
:1005600000C08368402B0B4608BF1346CCF8083008
:1005700008BF0A460068C26080BD000070470000E6
:1005800072B600BFFEE7000070B50446A66D00F02D
:10059000D5FA054694F83500022827D1206801686D
:1005A00021F0160101602068416921F0800141615C
:1005B000206C08B9A06C20B12068016821F0080106
:1005C00001602068016821F0010101602068006875
:1005D00010F0010F0ED000F0B1FA401B0628F5D341
:1005E00020206065032084F835000CE080206065E1
:1005F000012008E0E06D3F2101FA00F0B060012029
:1006000084F835000020002184F83410C0B270BD99
:1006100090F8351002291FBF8021416501207047E5
:100620004FF0050180F835100068016821F00101E4
:1006300001604FF000007047F0B581B00446002023
:10064000009040F20000C2F200000068D4E9166198
:100650003768082202FA01F148F2B512C1F64E32AB
:10066000A0FB0205394211D02068016811F0040F87
:100670000CD0016821F004010160E06D082101FA4D
:1006800000F0B060606D40F001006065E06D012138
:1006900001FA00F0384209D02168496911F0800F51
:1006A0001FBFB060606D40F002006065E06D042126
:1006B00001FA00F0384209D02168096811F0020FF0
:1006C0001FBFB060606D40F004006065E06D1021F8
:1006D00001FA00F038421CD02168096811F0080FB7
:1006E00017D0B06020680168006811F4802F07D12E
:1006F000C0055FBF2068016821F00801016001E0CA
:10070000000301D4216C00E0A16C00291CBF20462D
:100710008847E06D202101FA00F0384249D0216875
:10072000096811F0100F44D0B06094F835202168AA
:100730000868052A22D120F0160008602068416967
:1007400021F080014161206C08B9A06C20B12068C3
:10075000016821F008010160E06D3F2101FA00F01D
:10076000B060012084F83500002084F83400216D49
:10077000002942D02046884701B0F0BD21680968B1
:1007800040030DD4C8050FD42068016821F0100182
:100790000160012084F83500002084F8340003E073
:1007A000080301D4616C00E0E16B00291CBF204606
:1007B0008847606D08B3606D10F0010F18D0A80A6B
:1007C000052184F8351021680A6822F001020A60C8
:1007D000009901310091814204D82168096811F023
:1007E000010FF5D1012084F83500002084F8340091
:1007F000E16C00291CBF2046884701B0F0BD000015
:100800002DE9F041044600F099F90546002C02BF9D
:100810000122D0B2BDE8F0814FF0020084F835002B
:100820004FF0000084F834002068016821F00101D5
:10083000016000BF2068016811F0010F08D000F0CE
:100840007DF9401B0528F5D903202021032243E030
:10085000016848F23F02CFF2100201EA020C251DA6
:100860002CCDD4E9041E04F1180898E8C00142EA2E
:100870000C021A432A43114341EA0E013143394322
:1008800041EA0801626A042A02BFD4E90B2311433A
:100890001943016020684069616A20F0070040EA5E
:1008A000010504290BD1D4E90A01054339B12046D9
:1008B000FFF71EFE18B10120402101220CE0206844
:1008C00045612046FFF7F4FDE16D3F2202FA01F198
:1008D0008160002101200022616584F83500D0B2DA
:1008E000BDE8F081B0B5044694F8340001282DD05D
:1008F000A56D012084F8340094F83500012822D138
:10090000022084F83500002060652046FFF71AFEBB
:10091000E06D3F2101FA00F0A8602068016841F015
:1009200016010160206C00281FBF2068016841F09B
:10093000080101602068016841F0010101604FF089
:100940000000C0B2B0BD002084F834000220C0B264
:10095000B0BD000070B505466E1C00F0EFF804460F
:1009600036B140F20400C2F200000078054401E014
:100970004FF0FF3500F0E2F8001BA842FAD370BD3B
:100980002DE9F04F82B041F60042C4F2020208277E
:10099000904208BF072700F13E4202F1FF724FEA82
:1009A000B223072B38BF4FEAB22700974FF0010A56
:1009B0004FF0030B43F6004EC4F2010E0025002455
:1009C0004FF000080AE000BF0435023408F10108C6
:1009D000B8F1100F04BF02B0BDE8F08F0AFA08F9B1
:1009E0000E6816EA090CEFD04E6806F00306013EC9
:1009F000012E15D80BFA04F6D0F808B02BEA06063B
:100A00004FF0030BCA68A24032438260426822EA78
:100A100009024E68C6F3001606FA08F63243426031
:100A20004A6802F00302032A08D00BFA04F2C668EF
:100A300026EA02028E68A6403243C2604A6802F08B
:100A40000302022A13D105F01C020F2303FA02F657
:100A50004FF6FC73C7F6FF7303EA580303441F6A9B
:100A600027EA06060F6907FA02F232431A620BFA06
:100A700004F2036823EA02024B6803F00303A34075
:100A80001A4302608A7992079ED00022019243F6AF
:100A90004402C4F2020213461A6842F480421A6009
:100AA0001A6802F48042019228F003027244019B0A
:100AB0004FF60843CFF6FF73994652F8093005F018
:100AC0000C060F27B740BB43009F07FA06F63343D7
:100AD00042F80930DEF8082022EA0C024B6813F4D1
:100AE000801F18BF42EA0C02CEF8082043F60C42E1
:100AF000C4F201021646326822EA0C024B6813F473
:100B0000001F18BF42EA0C023260DEF8042022EA1D
:100B10000C024B6813F4003F18BF42EA0C02CEF8F7
:100B20000420DEF8002022EA0C024B6813F4803F18
:100B300018BF42EA0C02CEF8002045E740F2303000
:100B4000C2F200000068704740F20400C2F20000E8
:100B5000007840F23031C2F200010A6810440860A7
:100B60007047000080B543F60040C4F202000168FF
:100B700041F400710160016841F480610160016825
:100B800041F480710160032000F090F80F2000F024
:100B900005F800F05DF8002080BD000070B586B05B
:100BA00004460025019543F64000C4F202000168A6
:100BB00041F010010160006800F010000190019800
:100BC00001A8694600F02AF9049E00F04DF940F2B0
:100BD0007811C2F2000141F20002C4F2000240F2B8
:100BE000E733002E18BF0126B0404DF68366C4F2ED
:100BF0001B36A0FB06064FF0FF3000EB9640C1E924
:100C00000020C1E902530D618D61084600F0CCFB64
:100C10000546CDB940F27810C2F2000000F0F4FBB6
:100C200005468DB9362000F02FF80F2C0BD8002583
:100C300036202146002200F029F840F20800C2F2D6
:100C40000000046000E00125284606B070BD0000E9
:100C500082B00020019043F64001C4F202014A68CC
:100C600042F480424A604A6802F480420192019A4A
:100C70000090086840F080500860086800F08050DC
:100C80000090009802B0704701F0DABE70B51446CB
:100C90000D46064601F0E6FE2946224601F0D2F94D
:100CA00001463046BDE8704001F0E4BE01F0F4BEFC
:100CB0002DE9F0410D460446002C00F0AB8043F6D0
:100CC0000808C4F20208D8F8F80300F00700A842A8
:100CD00008D288F8F853D8F8F80300F00700A842C3
:100CE00040F09880206810F0020F19D0400742BFF2
:100CF000D8F8000040F4E050C8F800002078000761
:100D000042BFD8F8000040F46040C8F80000D8F8AE
:100D10000000A16820F0F00040EA0100C8F80000DF
:100D20002078C00735D06068811E022905D258F8A6
:100D3000080C10F0007F6DD00CE0012805D158F8A8
:100D4000080C10F4003F65D004E058F8080C10F0CF
:100D5000020F5FD0D8F80000616820F0030008435C
:100D6000C8F80000FFF7EAFE064641F2883700BFE8
:100D7000D8F80000616800F00C00B0EB810F08D0DB
:100D8000FFF7DCFE801BB842F2D90320C0B2BDE8F9
:100D9000F081D8F8F80300F00700A84207D988F8D6
:100DA000F853D8F8F80300F00700A84232D12078B1
:100DB000400707D5D8F80000E16820F4E050084368
:100DC000C8F800002078000708D5D8F8000021698D
:100DD00020F4604040EAC100C8F8000000F068F864
:100DE000D8F80010C1F3031143F64842C0F60002E0
:100DF000515CC84040F20001C2F20001086040F2BC
:100E00000800C2F200000068FFF7C8FE0020C0B270
:100E1000BDE8F0810120C0B2BDE8F0810F22026080
:100E200043F60802C4F20202136803F003034360AE
:100E3000136803F0F0038360136803F4E053C360A6
:100E4000D2F800C04FF4E05303EADC030361D2F8A8
:100E5000F80300F0070008607047000040F200004F
:100E6000C2F200000068704780B5FFF7F7FF43F655
:100E70000801C4F202010968C1F3822143F6584215
:100E8000C0F60002515CC84080BD000080B5FFF78D
:100E9000E5FF43F60801C4F202010968C1F34231DB
:100EA00043F65842C0F60002515CC84080BD0000C5
:100EB00010B543F60404C4F20204606800F00C00AC
:100EC00008280BD004281EBF42F20040C0F2F400F4
:100ED00010BD47F64000C0F27D1010BD22682068AA
:100EE00047F64001C0F27D1110F4800F04BF42F2BA
:100EF0000041C0F2F4012068C0F38810A1FB00019A
:100F000002F03F024FF00003FFF7AEF92168C1F392
:100F100001414FF0020202EB4101B0FBF1F010BDC4
:100F20002DE9F04782B004466CB32078C00743F641
:100F3000000AC4F2020A43F67007C4F2020755D051
:100F400057F8680C00F00C0004281ED057F8680C05
:100F500000F00C00082804D157F86C0C10F4800F36
:100F600013D16168B1F5803F08D0DAF80000B1F51F
:100F7000A02F13D140F48020CAF80000DAF8000056
:100F800040F4803012E001209DE1DAF8000010F416
:100F9000003F2BD0606848BB012094E120F48030F2
:100FA000CAF80000DAF8000020F48020CAF8000037
:100FB0006668FFF7C3FD054666B100BFDAF80000BA
:100FC00010F4003F12D1FFF7B9FD401B6428F5D99A
:100FD000032078E1DAF8000010F4003F06D0FFF7B4
:100FE000ADFD411B03206429F4D96CE12078800712
:100FF00040F20008C4F2472837D557F8680C10F0C3
:101000000C0F21D057F8680C00F00C00082804BF22
:1010100057F86C0C10F4800F16D0E068002800F030
:1010200094800120C8F80000FFF788FD054600BF46
:10103000DAF8000010F0020F0ED1FFF77FFD401B21
:101040000228F5D903203EE1DAF8000010F0020F83
:101050001CBFE068012876D1DAF80000216920F091
:10106000F80040EAC100CAF800002078000724D543
:10107000606980B10120C8F8800EFFF75FFD05466A
:10108000786810F0020F18D1FFF758FD401B0228B6
:10109000F6D9032017E10020C8F8800EFFF74EFDB7
:1010A000054600BF786810F0020F06D0FFF746FD36
:1010B000401B0228F6D9032005E12078400740F1C3
:1010C000898057F8300C4FF0000910F0805F0FD185
:1010D000CDF8049057F8300C40F0805047F8300CB1
:1010E00057F8300C00F08050019001984FF0010942
:1010F00043F60006CFF6FE765AF8060010F4807F1D
:1011000014D15AF8060040F480704AF80600FFF740
:1011100015FD05465AF8060010F4807F06D1FFF74A
:101120000DFD401B0228F5D90320CCE0A168012960
:1011300005D0386805291CD140F0040038603868B3
:1011400040F001001BE00120BDE00020C8F80000D5
:10115000FFF7F4FC054600BFDAF8000010F0020FBC
:101160003FF483AFFFF7EAFC411B03200229F3D9C8
:10117000A9E020F001003860386820F004003860F1
:10118000A668FFF7DBFC05466EB141F2883600BF6A
:10119000386810F0020F14D1FFF7D0FC401BB042AA
:1011A000F6D903208FE041F2883600BF386810F08E
:1011B000020F06D0FFF7C2FC411B0320B142F5D954
:1011C00081E0B9F1010F02BF57F8300C20F08050D8
:1011D00047F8300CA669002E74D057F8680C00F060
:1011E0000C00082803D1012E22D101206BE0002041
:1011F000C8F86000FFF7A2FC0546022E0CD100BF24
:10120000DAF8000010F0007F38D0FFF797FC411BA0
:1012100003200229F4D956E0DAF8000010F0007F2C
:1012200050D0FFF78BFC411B03200229F4D94AE080
:1012300057F86C0CE16900F480028A4247D1216AB8
:1012400000F03F028A4244D147F6C0710140626A11
:10125000B1EB821F3FD1A16AC9034FF6FF729143E0
:10126000A1F5803100F440328A4236D1E16A00F0C3
:101270007060B0EB016F25D0012024E004F11C0662
:101280004FCE084340EA821040EA0660D9034FF689
:10129000FF729143A1F58031084347F86C0C01209F
:1012A000C8F86000FFF74AFC044600BFDAF8000007
:1012B00010F0007F06D1FFF741FC011B032002293B
:1012C000F4D900E00020C0B202B0BDE8F0870120F0
:1012D000F9E70120F7E70120F5E70120F3E7000037
:1012E000704700007047000090F83C300222012B4C
:1012F00057D010B5012380F83C3080F83D200368BA
:10130000D3F804E0D3F808C00C682EF07002224332
:101310005A60036841F2FF72C4F200029342BDE8D2
:1013200010400BDC40F2FF72C4F20002934213DC67
:10133000B3F1804F29D040F2004215E040F2FF3275
:10134000C4F20102934214DC41F60002C4F200022E
:1013500093421AD0002214E040F60002C4F20002C8
:10136000934212D040F60042C4F2000293420CD0E5
:1013700011E044F20002C4F20102934205D040F2AF
:101380000042C4F20102934205D149682CF0800268
:10139000114302689160012180F83D10002280F81D
:1013A0003C20D0B27047000010B50446002C04BFAA
:1013B000012010BD94F83D0028B9002084F83C00BD
:1013C000204600F01FF8022084F83D002068211D0F
:1013D00000F062FF012084F8460084F83E0084F8A3
:1013E0003F0084F8400084F8410084F8420084F80B
:1013F000430084F8440084F8450084F83D00002050
:1014000010BD00007047000090F83D1001291CBF7E
:10141000012070474FF0020180F83D100168CA6852
:1014200042F00102CA60016841F2FF72C4F2000298
:1014300091420FDC40F2FF72C4F20002914217DCCD
:10144000B1F1804F2DD040F20042C4F2000291422F
:1014500027D02EE040F2FF32C4F20102914214DCA8
:1014600041F60002C4F2000291421AD0002214E0B8
:1014700040F60002C4F20002914212D040F600424F
:10148000C4F2000291420CD013E044F20002C4F214
:101490000102914205D040F20042C4F201029142A1
:1014A00007D10168896801F00701062904BF0020FF
:1014B00070470068016841F0010101600020704739
:1014C00070470000B0B504462068C168026901EAAF
:1014D0000205A90715D56FF00201016101202077EF
:1014E0002068806910F0030F03D02046FFF7E8FF63
:1014F00005E0204600F0A6F8204600F055F900204F
:101500002077680716D520686FF00401016102207A
:1015100020772068806910F4407F03D02046FFF7D1
:10152000CFFF05E0204600F08DF8204600F03CF9A2
:1015300000202077280716D520686FF00801016188
:10154000042020772068C06910F0030F03D02046E4
:10155000FFF7B6FF05E0204600F074F8204600F0E3
:1015600023F900202077E80616D520686FF01001D7
:101570000161082020772068C06910F4407F03D003
:101580002046FFF79DFF05E0204600F05BF820466F
:1015900000F00AF900202077E80706D020686FF0F5
:1015A00001010161204600F083F9280606D5206874
:1015B0006FF0800101612046FFF792FE680606D5B4
:1015C00020686FF040010161204600F07BF9A80619
:1015D00058BFB0BD20686FF0200101612046BDE812
:1015E000B040FFF77FBE000080B586B000210591B6
:1015F000CDE90311CDE90111026840F60040C4F2C3
:101600000000824201D006B080BD009143F6300256
:10161000C4F20202136843F001031360126802F07F
:1016200001020092009A0F2201920222CDE90222C9
:10163000CDE9041200F5FA3001A9FFF7A1F906B0CF
:1016400080BD000070470000B0B50D46044694F818
:101650003C00012802BF0220C0B2B0BD4FF0010023
:1016600084F83C004FEAB20103294ED8DFE801F0CC
:10167000021425372068294600F0BCFE20688169E5
:1016800041F0080181612068816921F004018161D4
:1016900029692068183034E02068294600F0DCFE13
:1016A0002068816941F4006181612068816921F4C9
:1016B000806181612068183021E02068294600F0AF
:1016C00001FF2068C16941F00801C1612068C1695A
:1016D00021F00401C161296920681C3011E02068F3
:1016E000294600F025FF2068C16941F40061C1610D
:1016F0002068C16921F48061C16120681C302969BA
:1017000009020268114301600020002184F83C10A6
:10171000C0B2B0BD10B50446002C04BF012010BDFE
:1017200094F83D0028B9002084F83C00204600F0E1
:101730001FF8022084F83D002068211D00F0ACFD58
:10174000012084F8460084F83E0084F83F0084F8C5
:10175000400084F8410084F8420084F8430084F893
:10176000440084F8450084F83D00002010BD0000CE
:10177000006840F60041C4F20001884218BF70477B
:1017800081B04FF00000009043F64000C4F2020028
:10179000016841F008010160006800F00800009055
:1017A000009801B0704700007047000010B5044673
:1017B00039B10320082908BF0220042908BF0120ED
:1017C00000E00020204490F83E0001281CBF0120CA
:1017D00010BD4FF0020041B1082909D0042914BFFF
:1017E00084F8410084F83F0004E084F83E0001E002
:1017F00084F840002068012200F0ECFD206840F4ED
:10180000806240F20041C4F201018A4202BF426C90
:1018100042F400424264206841F2FF72C4F20002C6
:1018200090420FDC40F2FF71C4F2000188421BDCE1
:10183000B0F1804F2DD040F20041C4F20001884247
:1018400027D02EE040F2FF32C4F20102904218DCB1
:1018500041F60001C4F2000188421AD00021C4F20E
:101860000101884215D01CE040F60001C4F20001DD
:1018700088420ED040F60041C4F20001884208D0F0
:101880000FE044F20002C4F20102904201D088420B
:1018900007D12068806800F00700062804BF0020F8
:1018A00010BD2068016841F001010160002010BDF9
:1018B000006841F20001C4F20001884208BFFFF74E
:1018C00043B970477047000070B582B0044694F881
:1018D0004200202822D10125002918BF002A1ED04D
:1018E0000125256300266663204600F0D9FF216BA1
:1018F000012914D10196216809680191216849687C
:1019000001910199216851E8031F226841F01001FB
:1019100042E80313002BF5D1054600E002252846D6
:1019200002B070BDF0B581B00F4640F20821C2F29E
:1019300000010A7882B10978002240F22435C2F20F
:10194000000500BFD6B255F826305C6B844205D046
:101950000132D3B28B42F5D301B0F0BD996B31B1F6
:10196000D86B884755F826003946FEF726FD55F80E
:10197000261091F83220486BFFF7A6FF55F8260095
:10198000406BC06B0068016821F00801016001B084
:10199000F0BD000010B504462068406994F841107D
:1019A000212915D110F0800012D000BF206850E826
:1019B000050F216820F0800041E80502002AF5D1DA
:1019C000A06B002818BFFEF7DFFD204600F086FE62
:1019D0002068406994F84210222915D110F0400087
:1019E00012D000BF206850E8050F216820F04000A9
:1019F00041E80502002AF5D1E06B002818BFFEF788
:101A0000C3FD204600F038FE002010BD70B540F246
:101A10000821C2F200010A78FAB10A78002440F2E3
:101A20002435C2F2000504E00134E1B2914228BF3E
:101A300070BDE6B255F826104B6B8342F4D191F895
:101A400032201846FFF740FF55F82600406BC06B68
:101A50000068016821F00801016070BD70B582B0B6
:101A6000044622681068D168536901F0200200F032
:101A70002F05202D06D12AB1204602B0BDE87040C6
:101A800000F03ABE5FEA007C08D003F0010E8EF051
:101A9000010311F4907F51D1002B4FD00840C106B3
:101AA000216B42D5012940D10020019020680068B7
:101AB000019020684068019001982068406910F00A
:101AC000400F40F09F80A08DE18DE28D002A1EBF67
:101AD000401A81B2002900F0018100BF206850E85F
:101AE000030F226820F4907042E80303002BF5D125
:101AF000206850E8050F226820F0010042E8050345
:101B0000002BF5D1202084F842000020206300BF84
:101B1000206850E8030F226820F0100042E8030319
:101B2000002BF5D102206063C7E0010640F1B280CE
:101B3000204602B0BDE8704000F008BFC50706D0DF
:101B400011F480751EBF656C45F00105656400F0F9
:101B50000406012585EA96061E4302BF666C46F020
:101B60000206666400F0020685EA56052B4302BFB2
:101B7000636C43F00403636452EA0E0218BF01224F
:101B8000BCF1000F05D5012A02BF626C42F00802C9
:101B90006264626C002A00F0A1800840800644BFA5
:101BA000204600F0A9FD2068406900F04000616C0B
:101BB00001F00801084300F08C80204600F05CFD35
:101BC0002068406910F0400F00F07D80206850E8E8
:101BD000050F216820F0400041E80502002AF5D1F8
:101BE000E06B00286FD042F28151C0F60001016520
:101BF000FEF70EFD002871D0E06B016D02B0BDE86C
:101C000070400847E06B0068406881B2002949D005
:101C1000A28D914246D2E085E06BC069B0F5807F2D
:101C200031D000BF206850E8030F216820F4807095
:101C300041E80302002AF5D1206850E8050F216829
:101C400020F0010041E80502002AF5D1206850E8A3
:101C5000050F216820F0400041E80502002AF5D177
:101C6000202084F842000020206300BF206850E854
:101C7000030F216820F0100041E80302002AF5D18B
:101C8000E06BFEF781FC02206063A08DE18D401ABD
:101C900081B212E0400621D5204602B0BDE8704076
:101CA00000F012BDA08D884218D1E06BC069B0F57C
:101CB000807F13D102206063A18D204602B0BDE871
:101CC0007040FFF72FBE204602B0BDE87040FFF71E
:101CD0009DBE2046FFF79AFE0020606402B070BDF2
:101CE00010B50446002C04BF012010BD94F841003B
:101CF00028B9002084F84000204600F023F8242072
:101D000084F841002068C16821F40051C160204678
:101D100000F056FD2068016921F4904101612068BE
:101D2000416921F02A0141612068C16841F40051F4
:101D3000C16000206064202184F8411084F84210C2
:101D4000606310BD70B586B0044600260596CDE9E7
:101D50000366CDE90166216841F20000C4F201008A
:101D6000814201D006B070BD009643F63001C4F246
:101D700002014A6942F010024A614A6902F0100207
:101D80000092009A00960A6842F001020A6009680F
:101D900001F00101009100994FF4C061019102210D
:101DA000CDE90216032104910721059100F5704049
:101DB00001A9FEF7E5FD40F2D005C2F2000546F2AA
:101DC0004040C4F2020028604FF00060C5E90106FF
:101DD000EE604FF48060C5E90866C5E90666C5E9AE
:101DE00004062846FEF70CFD002818BFFEF7C8FBC6
:101DF000E563AC634FF025004FF000014FF00002A7
:101E0000FEF744FF4FF02500FEF73EFF06B070BD21
:101E10000268116841F20003C4F201039A4233D10F
:101E200011F0100108BF704780B582B04FF000017B
:101E3000019101680968019101684968019101995E
:101E4000FFF7A8FD40F2D000C2F200000068406831
:101E5000C0F1640040F22231C2F20001088082B277
:101E600040F20C20C2F2000040F2BC21C2F200019C
:101E7000FEF771FA40F22030C2F200004FF001018B
:101E8000017002B0BDE880407047000090F8423019
:101E9000202B08D10123002918BF002A04D00023D9
:101EA000036300F0FDBC0223D8B270477047000006
:101EB0007047000070470000FEE7000080B582B068
:101EC0000020019043F63000C4F20200016841F4A2
:101ED00080010160006800F48000019001983A20C0
:101EE00000210022FEF7D2FE3A2002B0BDE8804079
:101EF000FEF7CABE81B00020009043F63000C4F265
:101F00000200016841F001010160006800F0010079
:101F10000090009801B0704710B58AB00024099471
:101F2000CDE90744CDE90544CDE90344CDE90144B9
:101F300040F23010C2F2000040F60041C4F200014D
:101F40004F2244F61F6380E81600C0E90334846121
:101F5000FFF7E0FB002818BFFEF712FBCDE90844AD
:101F600040F23010C2F2000008A9FFF7BDF90028C6
:101F700018BFFEF705FB4FF0600001904FF0000026
:101F8000CDE90200059040F23010C2F2000001A934
:101F90004FF00002FFF758FB002818BFFEF7F0FAD9
:101FA00040F23010C2F2000001A94FF00402FFF726
:101FB0004BFB002818BFFEF7E3FA40F23010C2F2E4
:101FC000000001A94FF00802FFF73EFB002818BFF0
:101FD000FEF7D6FA40F23010C2F2000001A94FF02D
:101FE0000C02FFF731FB002818BFFEF7C9FA40F2D8
:101FF0003010C2F20000FFF7F7FA0AB010BD00007F
:1020000080B540F2C010C2F2000041F20001C4F2FB
:1020100001014FF4E13200234FF00C0C80E80E0078
:10202000C0E90333C0E905C3C361FFF759FE0028C7
:102030001CBFBDE88040FEF7A3BA80BDFEE70000EC
:10204000FEE7000000F0070000F1040CC31EBCF125
:10205000070F38BF002380F00700042828BF0420A2
:102060004FF0010C0CFA00F00138084098400CFACF
:1020700003F1013911400843704700007047000028
:102080007047000084460120BCF1030F88BF7047F1
:10209000F0B581B00DF1180E9EE8A0400CEB8C0459
:1020A00040F28006C2F2000646F8241006EB8401D6
:1020B0004A600B814D818F81A1F80EE0088256F8AD
:1020C00024004968FFF772FB4FF0000001B0BDE843
:1020D000F0407047102040F28001C2F2000100225F
:1020E0000A5214306028FBD100207047032860D8C2
:1020F00000EB800240F2800CC2F2000C0CEB82027A
:10210000128A002A55D010B500EB80020CEB820039
:102110008389C189A1EB030E5CF822C0028944893E
:1021200001EE103AB8EE411A02EE101AA11AB8EEFA
:10213000422AB4EEC01AF1EE10FAC8BFB0EE410A5E
:1021400003EE101ADCF80010B4EEC20AF1EE10FA39
:10215000C8BFB0EE420AB8EEC32A03EE10EA30EE72
:10216000410ACB6A01EE102AB8EEC33A20EE020A09
:102170009FED172AB8EE411A80EE030A03EE103ADB
:10218000B8EE433A30EE010A20EE030A80EE020A6E
:10219000BCEEC00A40684FEAB002032ABDE8104016
:1021A0000AD810EE100ADFE802F0020A0C0E3431F1
:1021B0000AE00120C0B270470220C0B27047383137
:1021C00002E03C3100E0403108600020C0B27047BE
:1021D00000409C4670470000B0B592B000240B94BC
:1021E000CDE90944CDE907440594CDE90344CDE99F
:1021F0000144009443F64000C4F20200016841F03B
:1022000080510160006800F08050009000980094B8
:1022100047F20000C4F20000016841F4804101600F
:10222000006800F480400090009802250695012087
:10223000099010200A90CDE90C5408200E90A0209F
:10224000CDE90F050420119006A8FEF769FE88B9B4
:102250000F20CDE9010503944FF4A05004904FF4F2
:102260008050059001A80521FEF722FD002804BF3B
:1022700012B0B0BDFEF784F94EF68850CEF20000E1
:10228000016841F4700101607047000040F278106D
:10229000C2F20000FFF716B980B5D0F800E040F6B2
:1022A000FF3CC4F2000C60450FDCB0F1804F1EBF54
:1022B00040F20043C4F20003984217D040F60003F6
:1022C000C4F20003984211D015E040F60043C4F276
:1022D000000398421EBF40F20043C4F2010398423B
:1022E00004D00023C4F20103984204D14B682EF0BD
:1022F000700243EA020E41F6FF73C4F200039842F3
:102300000DDC60451FDCB0F1804F1EBF40F2004382
:10231000C4F2000398423BD040F6000321E043F6AC
:10232000FF73C4F20103984220DC42F20003C4F2BE
:10233000000398421EBF0023C4F20103984227D035
:1023400040F2004320E040F60043C4F2000398420C
:102350001EBF41F60003C4F20003984218D041F6B4
:102360000043C4F20003984212D016E044F2000386
:10237000C4F2010398421EBF44F60003C4F20103F5
:10238000984205D044F20043C4F20103984204D1BC
:10239000CB682EF4407243EA020E8B684A69C3622E
:1023A0000B6883622EF0800343EA020C40F48063E2
:1023B00040F20042C4F20102934204BF0969016382
:1023C000016841F0040101604FF001014161C0F872
:1023D00000C080BD01F01F01012303FA01FC036A64
:1023E00023EA0C03036202FA01F1026A114301625B
:1023F00070470000B0B5026A036A23F0010303626C
:10240000D0F804E084690B688D6822F0020215435D
:1024100024F0730242EA030C40F4806240F200446C
:10242000C4F20104A24201BF25F00C03CD6825F0DF
:1024300004051D43A24201BFD1E905232EF44074D7
:10244000224342EA030EC0F804E0C0F818C049680D
:1024500041630562B0BD000070B5026A036A23F0F3
:1024600010030362466884690B688D6822F02002BD
:1024700042EA051E24F4E64242EA032C40F480625C
:1024800040F20044C4F20104A24201BFCB686FF0E5
:102490004F0505EA03132EF0C00508BF43EA050EF9
:1024A000A24201BFD1E9052326F4406444EA820236
:1024B00042EA83064660C0F818C049688163C0F8E4
:1024C00020E070BD70B5026A036A23F48073036272
:1024D0004668C4690B688D6822F4007242EA052ED2
:1024E00024F0730242EA030C40F4806240F200449C
:1024F000C4F20104A24208D1CB681B0240F2FF459E
:10250000AB432EF4406543EA050EA24201BFD1E978
:10251000052326F4405444EA021242EA03164660B8
:10252000C0F81CC04968C163C0F820E070BD00005D
:10253000B0B5D0F820C0036A23F480530362436827
:10254000C569D1F800E08C682CF4005242EA043CE2
:1025500025F4E64242EA0E2240F4806540F200444F
:10256000C4F20104A54202BF4D6923F4804343EA4B
:1025700085134360C26149680164C0F820C0B0BDE2
:10258000806B0021C185FFF741BA000010B5846B54
:102590002068406994F84110212907D110F080008B
:1025A00004D00020E084204600F098F820684069BC
:1025B00094F84210222907D110F0400004D00020E6
:1025C000E085204600F058F8606C40F01000606430
:1025D0002046BDE81040FFF719BA00000168806B83
:1025E000096811F4807F2FD10021C185016851E86D
:1025F000031F026821F4807142E80313002BF5D118
:10260000016851E8051F026821F0010142E8051345
:10261000002BF5D1016851E8051F026821F0400147
:1026200042E80513002BF5D1202180F84210016B00
:10263000012909D1016851E8031F026821F0100146
:1026400042E80313002BF5D100214163016B0129FE
:1026500018BFFFF72BBC818DFFF764B9806B012198
:102660004163016B012918BFFFF722BC818D4FEA3E
:102670005101FFF757B90000016851E8031F0268D4
:1026800021F4907142E80313002BF5D1016851E861
:10269000051F026821F0010142E80513002BF5D166
:1026A000016B01290AD100BF016851E8031F0268CC
:1026B00021F0100142E80313002BF5D1202180F80E
:1026C00042100021016370470168CA6822F040028D
:1026D000CA60202180F84110FFF7ECBB016851E887
:1026E000031F026821F0C00142E80313002BF5D15B
:1026F000202180F84110704790F84210222918BF1D
:1027000070478268B2F5805F03D1016971B1816A57
:1027100005E0816A0AB902690AB17F2200E0FF225E
:1027200003685B681A400A70012106E00168826A4A
:1027300049686FF35F2111800221826A114481622E
:10274000C18D0139C1854FF6FF72114200D070472B
:102750000168CA6822F02002CA600168CA6822F4CF
:102760008072CA6001684A6922F001024A61202130
:1027700080F8421000214163026B012A18BFFFF765
:1027800095BB0163016851E8031F026821F0100145
:1027900042E80313002BF5D10168096811F0100F0E
:1027A0000AD081B000210091016809680091016898
:1027B00049680091009901B0818DFFF7B3B800001E
:1027C00010B5044620680169E26821F440511143C4
:1027D00001612068A168D4E9042311431943E26927
:1027E0001143C26849F20C639A431143C1602068E7
:1027F0004169A26921F4407111434161206840F4AC
:10280000806041F20041C4F20101884202D1FEF72A
:102810003DFB01E0FEF728FB1921A0FB01016368E5
:10282000E269B2F5004F1CD15A00DB0FFDF71CFD29
:1028300048F21F51C5F2EB11A0FB01235A096FF0BA
:10284000630302FB0300322303EBC000A0FB010182
:102850004FF4F87000EA111000EB0210C1F34211BE
:102860001AE09A009B0FFDF7FFFC48F21F51C5F2DA
:10287000EB11A0FB01235A096FF0630302FB030075
:10288000322303EB0010A0FB0101F02000EA5110FD
:1028900000EB0210C1F3431108432168886010BDAA
:1028A00070B582B013460A460446A262A38500268C
:1028B0006664222084F84200E06B42F2DD51C0F6EB
:1028C000000142F25D65C0F60005C0E90F1542F255
:1028D0008D51C0F60001C0E9131621680431FEF7DE
:1028E00001F838B110206064202084F842000120F3
:1028F00002B070BD019620680068019020684068B1
:1029000001900198206948B1206850E8030F2168C0
:1029100040F4807041E80302002AF5D1206850E8B5
:10292000050F216840F0010041E80502002AF5D1B9
:10293000206850E8050F216840F0400041E805029A
:10294000002AF5D1002002B070BD000090F84110BF
:10295000212928D18168B1F5805F04BF0169002970
:1029600006D0016A4A1C026202680978516008E0D8
:102970000168026A12886FF35F224A60016A0231BD
:102980000162C18C0139C1844FF6FF72114218BF38
:1029900070470168CA6822F08002CA600068C16896
:1029A00041F04001C1607047B0B540F2C014C2F2BE
:1029B00000042046FFF72CFA2046FFF74FF840F2BC
:1029C000BC25C2F2000500BF204629466422FFF75D
:1029D0005DFA0028F8D1B0BDB0B50C4605463421EB
:1029E000FDF7EBFC60686863207885F83200A0682A
:1029F000A863E068E86340F20820C2F200000178B2
:102A00004A1C027040F22430C2F2000040F821500B
:102A10002846BDE8B04000F001B8000010B50446FB
:102A200094F83220606B2146FEF74EFF606BC06B5E
:102A30000068016821F00801016010BDFEE7000098
:102A40000028B8BF704700F01F014FF0010202FAE2
:102A500001F14FEA50104EF20012CEF2000242F89D
:102A6000201070474EF60C50CEF200000068C0F304
:102A70000220704700F1604C00F00F034EF6145234
:102A8000CEF200021A44B0F1FF3FC8BF0CF5644219
:102A900008011070704700004EF60C51CEF2000194
:102AA0000A684FF6FF031A4060F30A2242F0806082
:102AB00040F0FD700860704770B52DED108B144626
:102AC0000D460646B0EE41AAB0EE609AB0EE408ADE
:102AD00029EE09EA68EE088A2AEE0AFA38EE8EBA7A
:102AE0003BEE0FDAB0EE4D0A00F046FDB0EE40CA04
:102AF000B4EE4CCAF1EE10FA05D0B0EE4D0A00F07B
:102B00003BFDB0EE40CA9FED550A30EE680A30EE4C
:102B10004E0A9FED531A30EE4F0A80EE01EAB0EEF6
:102B20004B0A00F029FDB0EE401AB4EE411AF1EE66
:102B300010FA05D0B0EE4B0A00F01EFDB0EE401AC0
:102B4000B0EE4A0AF0EE410A00F07EFAB0EE40DA4A
:102B50008EEE0CCAB0EE4C0A00F08CF8B7EE001AFC
:102B6000B4EEC10AF1EE10FA04DD9FED400A002038
:102B7000306030E0B0EE4C0A00F0DAF93DEE000AC9
:102B800086ED000AB0EE4B0A00F0F6FCB0EE40CA4B
:102B9000B4EE4CCAF1EE10FA05D0B0EE4B0A00F0DC
:102BA000EBFCB0EE40CA96ED000A00F075FB9FED1D
:102BB0002DBA96ED001A9FED2CDA00EE0BCAB0EE9E
:102BC000410A00F011FC00EE0BAACCEE0D0A8AEED1
:102BD0000D0A00F039FA85ED000A96ED000A00F0C2
:102BE00073F986ED000A95ED000A00F06DF985EDA8
:102BF000000AB0EE490AF0EE480A00F025FA00F0AB
:102C000063F984ED000A96ED000AB5EEC00AF1EE14
:102C100010FABEBF9FED161A30EE010A86ED000ACB
:102C200095ED000AB5EEC00AF1EE10FABEBF9FEDB9
:102C3000101A30EE010A85ED000A94ED000AB5EE97
:102C4000C00AF1EE10FABEBF9FED091A30EE010A7C
:102C500084ED000ABDEC108B70BD00BF00A893C5C9
:102C60000000A543000025430000164300000000BB
:102C70000000B44300F055B92DE9F0412DED088B6B
:102C800088B0FDF76FFFFFF7A7FAFFF733F9FFF7FB
:102C900015F9FFF741F9FFF7B3F9FFF71BFAB4266F
:102CA000002540F6C417CDE90075029640F23014B5
:102CB000C2F200040020214600224FF4FA73FFF70D
:102CC000E1F9CDE9007502960120214604224FF476
:102CD000FA73FFF7D7F9CDE9007502960220214675
:102CE00008224FF4FA73FFF7CDF9CDE9007502968B
:102CF000032021460C224FF4FA73FFF7C3F940F288
:102D00007407C2F200079620A521C7E90050B960F8
:102D100032208DF8100040F2C010C2F20000059081
:102D200042F64960C0F60000069040F27C20C2F2F4
:102D30000000079004A9FFF74FFE40F27024C2F292
:102D40000004251D04F108069FED3B8A9FED3CAA77
:102D500040F27008C2F200089FED3A9A9FED37BA30
:102D60002DE000BF94ED000A38EE400A84ED000A21
:102D700094ED010A0020FFF7B9F94FF47A70FDF7DE
:102D8000E9FD94ED000A0120FFF7B0F94FF47A70E5
:102D9000FDF7E0FD94ED020A0220FFF7A7F94FF4DA
:102DA0007A70FDF7D7FD98F8000001284FF0030076
:102DB00014BFB0EE490AB0EE480AFFF797F997ED55
:102DC000000A97ED012A97ED021AB8EEC11AF8EE43
:102DD000C20AB8EEC00A204629463246FFF76CFE0A
:102DE00094ED001AB4EEC81AF1EE10FAB0EE480AEB
:102DF00002DD84ED000A08E0B4EECB1AF1EE10FA21
:102E0000B0EE4B0AB8BF84ED000A94ED011AB4EE9F
:102E1000CA1AF1EE10FAB0EE4A0A03DD84ED010A97
:102E2000A0E700BFB5EEC01AF1EE10FAB0EE490A05
:102E3000B8BF84ED010A95E7000034430000A042CA
:102E4000000002430000000040F27C20C2F20000BB
:102E50000178ED2918BF70474178827841EA022253
:102E600040F27401C2F200010A60C278037942EABA
:102E700003224A60C279037A42EA03228A604FF051
:102E8000000200BF51F82230C82B01DDC82304E046
:102E900013F1C90F03DC6FF0C70341F82230013290
:102EA000032AEFD14A68002ABCBF00224A60407A58
:102EB000012801BF40F27000C2F200000121017040
:102EC000704700000000000080B59FED0B1A20EE57
:102ED000010A10EE100A00F02BFE9FED050B53ECDB
:102EE000102B00F079FC00F045FC00EE100A80BDCC
:102EF000182D4454FB2109400000344341000802CE
:102F000018BF04200A0E18BF40F001004FF07F42A6
:102F100032EA010108BF40F00200012808BF052085
:102F2000704710EE100A20F0004000EE100A7047C3
:102F300010B510EE104A4FF01A402DED028B00EB49
:102F40004400B0F1C85F4AD84FF0FC40B0EB440FEA
:102F500022D2B0EEC00AF7EE000A30EEC00AF6EE5A
:102F6000000A20EE208A18EE100A00F0E3FB00EEC3
:102F7000100A14F0004F1DBF9FED281ADFED280A3C
:102F8000B1EE400A9FED271A08BFF0EE410AF8EEB5
:102F9000001A20EE210A05E020EE008A9FED221A99
:102FA000DFED220ADFED221A9FED222A70EEC00A21
:102FB00020EE080A08EE212ADFED1F1A48EE021A59
:102FC0009FED1E2A08EE212ADFED1D1A48EE021A97
:102FD000BDEC028B40EE610A30EE810A10BD4FF06D
:102FE000CC40B0EB440F82BF9FED160ABDEC028BC4
:102FF00010BD4FF07F40B0EB440F05D2BDEC028B0B
:10300000BDE8104000F0D5BA0120FDF705FABDEC8F
:10301000028BBDE8104000F0D3BA00000000494028
:1030200022AA7D3A000000000000C93F22AAFD3913
:1030300024FE1C3DC78AD83C1E67383D1B93993D32
:10304000AFAA2A3EDB0FC93F10EE100A10B510EEF2
:10305000901A4FF0684202EB40032DED028BB3F162
:10306000654F3CBF02EB4102B2F1654F7CD200BF1D
:10307000C0F3C753C1F3C7529A1A1B2A09DD10F0D7
:10308000004F14BF9FED6E0A9FED6E0ABDEC028BE0
:1030900010BD12F11A0F1BDA11F0004F09D010F019
:1030A000004F0CBF9FED680A9FED680ABDEC028BD4
:1030B00010BD80EE208A18EE100AFFF71FFF0428CB
:1030C00008BF00F085FAB0EE480ABDEC028B10BDD7
:1030D0004200B2EB410F37D910F0004F19BFDFEDBE
:1030E0005C1A9FED5C1ADFED5C1A9FED5C1AB0EE86
:1030F000602A0A46F1EE400A80F00041B0EE420A32
:1031000010460A1A5200B2F1807F34D2484010F0C3
:10311000004FDFED532A9FED533A1DBFBEEE002A4C
:1031200071EEE21A31EE431AB6EE002A04BF71EED8
:10313000A21A31EE031AF0EE402A42EE602A40EE67
:10314000020A82EEA02A18E011F0004F04BF9FEDA2
:10315000461AF0EE411AD4D010F0004F1CBFDFED3C
:10316000431A9FED431A00E026E004BFDFED411A49
:103170009FED411AC5E780EE202A22EE020ADFED1C
:103180003F0ADFED3F2ABDEC028B40EE202ADFED47
:103190003D0A40EE220ADFED3C2A40EE202ADFED18
:1031A0003B0A40EE220A22EE000A00EE201A31EE1F
:1031B000020A30EE210A10BD4FF07F42B2EB400F01
:1031C00028BFB2EB410F05D2BDEC028BBDE8104029
:1031D00000F0F2B940EA01035B0008BF41F0FF4193
:1031E0000BD0B2EB400F08BFB2EB410F08D120F07B
:1031F000804000EE100A21F0804100EE901A37E77F
:10320000B2EB400F12BF5FEA410240F0FF4001F015
:1032100000413FF42DAF4A0092EA40033FF528AF4A
:10322000002AACBF9FED1A1A9FED1A1A20EE010A70
:1032300060EE810A10EE100A10EE901A18E70000F6
:10324000DB0FC9BFDB0FC93FDB0F4940DB0F49C0B4
:103250000000C9BF22AAFDB90000C93F22AAFD395A
:103260000060ED3EC30ACE3700000000000049C0F8
:1032700022AA7DBA0000494022AA7D3A2DAD65BD43
:103280008FB8D53D0FB511BE61C84C3EA8AAAABEE5
:103290000000804F0000802F10EE101A08B5444A3D
:1032A0006846B2EB410F28D94FF0E640B0EB410F32
:1032B00094BF00204FF0FF3000900098002861DBA1
:1032C00060EE000A10F0010F45D010F0020FDFEDA4
:1032D000391A9FED391A00EEA11ADFED381A40EEC7
:1032E000811A21EEA01AF0EE400A40EE010A08BF52
:1032F000F1EE600AB0EE600A08BD314B21F00042E9
:1033000093423CD911F0004FDFED2E0A20EE201A37
:10331000DFED2D0A19BF31EE601A71EE200A31EE91
:10332000201A71EE600ABDEEE01A11EE100A9FED50
:10333000271A00F0030000EEC10A9FED251A009045
:1033400000EEC10A9FED231A00EEC10A9FED221A7A
:1033500000EEC10AB1E79FED211A9FED210A10F09E
:10336000020F00EE810A9FED1F1A00EE801AB7EEE1
:10337000000A00EE810A18BFB1EE400A08BD00F055
:103380002FF99AE710EE100A4000B0F17F4F3CBFD2
:10339000B7EE000A08BD07D14FF00100FDF73CF879
:1033A000BDE8084000F00CB9BDE8084000F001B9E4
:1033B000B61F927E336D4CB9DA82083CA0AA2ABEB1
:1033C000490E494683F9223F0000004B0000C93FE7
:1033D00000A0FD390020A2331A61342CB93AB2BAE8
:1033E000CA9F2A3DDDFFFFBE00B510EE101A2DED7D
:1033F000028B81B0524A6846B2EB410F2ED94FF092
:10340000E640B0EB410F94BF00204FF0FF3000903A
:103410000098B0EE408A00286ADB10F0010F4BD014
:1034200068EE080A9FED471A9FED470A00EE810AF1
:103430009FED461A10F0020F00EE801AB7EE000A58
:1034400000EE810A02BF01B0BDEC028B00BD00BFDF
:1034500001B0B1EE400ABDEC028B00BD3C4B21F047
:103460000042934241D911F0004FDFED3A0A20EEBD
:10347000201ADFED390A19BF31EE601A71EE200A09
:1034800031EE201A71EE600ABDEEE01A11EE100A5C
:103490009FED321A00F0030000EEC10A9FED301AD2
:1034A000009000EEC10A9FED2F1A00EEC10A9FEDB9
:1034B0002E1A00EEC10AABE728EE080A9FED2B1A80
:1034C000DFED2B0A10F0020F40EE010A9FED291AE2
:1034D00000EE201A61EE000AB0EE480A08EE200A5B
:1034E000B6D101B0BDEC028B00BD00F079F88FE7DA
:1034F00018EE100A4000B0F17F4F0DD218EE100AFE
:10350000FFF7FCFC042808BF00F062F8B0EE480AA0
:1035100001B0BDEC028B00BD09D10120FCF77CFF9E
:1035200001B0BDEC028B5DF804EB00F049B801B0CE
:10353000B0EE480ABDEC028B5DF804EB00F039B840
:10354000B61F927EB93AB2BACA9F2A3DDDFFFFBECE
:10355000490E494683F9223F0000004B0000C93F55
:1035600000A0FD390020A2331A61342C336D4CB910
:10357000DA82083CA0AA2ABE10B52DED028BB1EE6E
:10358000C08A18EE100A20F00040C0F1FF40C00FC2
:103590000AD010EE100A20F00040C0F1FF40C00F2A
:1035A00004BF0120FCF738FFB0EE480ABDEC028BE7
:1035B00010BD30EE000A704730EE200A7047000060
:1035C000DFED020A80EEA00A704700000000000054
:1035D0009FED020A20EE000A704700000000001074
:1035E0002DE9F0014FF07F42B2EB410F9FBF4FF04A
:1035F000FF310160BDE8F00170474FF0004242EA40
:103600000123C1F3C752783A551112F01F0C434CF5
:10361000CCF120067C44C1F3C752A2F178024FEAF4
:10362000621204EB820254F8254008BFD2E9015629
:1036300012D0556804FA0CF425FA06F73C43976853
:1036400005FA0CF527FA06F8D26807FA0CFCF240E6
:1036500045EA08054CEA0206A4FB034CA5FB03520D
:10366000A6FB03631D449D4234BF012600261319A7
:10367000334416B1934202D903E0934201D20122AE
:1036800000E00022624402F1200C9206DC0C42EAC7
:10369000443200EE102A5B03DFED210AF8EEC01A77
:1036A00000EE103A4FEA9C1C11F0004FB8EE400AB1
:1036B000C0F800C020EE201A00EE105ADFED190A03
:1036C000B8EE400A20EE200A71EE810A70EE800A00
:1036D00010EE902A02F500626FF30B0200EE902AC2
:1036E00070EEE11A31EEC11ADFED101A30EE411A18
:1036F0009FED0D0A20EE800A01EE210A9FED0C1AC3
:1037000000EE810A04BFBDE8F0017047CCF18051A2
:103710000160BDE8F001B1EE400A704710060000FC
:10372000000000360000802C22AAFD29DB0FC92FE3
:103730000000C92F10B500EE100A2DED028BB1EE7E
:10374000C08A18EE100A20F00040C0F1FF40C00F00
:103750000AD010EE100A20F00040C0F1FF40C00F68
:1037600004BF0120FCF758FE18EE100ABDEC028BD6
:1037700010BD000021F0004201F00043A2F16052B0
:10378000B2F5801F28BFD2F17F6C0BD95FEA001C15
:1037900043EAC20242EB507018BF704728BF20F0C6
:1037A00001007047B2F5801FBCBF184670474FEA52
:1037B000410C1CF5001F02D2084600F02FBA70B56C
:1037C00000F062F900000089FFF7F6BF4FF00040FB
:1037D000A0F58000704700002DE9C04130B4DFF84B
:1037E000A0C23CEA111418BF3CEA131400F0EC80AC
:1037F0001CEA111481EA030544EAD57418BF1CEAD7
:10380000131500F0C780A4EB050404F17F7404F5E0
:1038100000344FF0004545EAC12145EAC32341EA9F
:10382000505143EA52534FEAC0204FEAC222994214
:1038300008BF904200F09C804FEA13650FF24016DB
:10384000765D4FEA134506FB05F7C7F1807706FB67
:1038500007F74FEAD737A7FB03687642A7FB06CEE8
:10386000C8F5803838BFA8F1010807FB08E6A6FBB9
:10387000028C4FF0000EE6FB03CEDCF1000CCEF123
:10388000004E38BFAEF1010EA6FB0C584FF00007FA
:10389000E6FB0E87A1FB08C6A0FB07CE16EB0E06C3
:1038A0004FF0000545F10005E1FB076515F1E04E1D
:1038B0007EBFA4F580345FEA46066D4116F18007AD
:1038C00045F100054FEA172747EA05674FEA152536
:1038D0004FEA0666A6F1DE46B6F1805F1FD938468C
:1038E00005EBC47124F0010C01EB0C11BCF1FE6F6F
:1038F00002D8F0BCBDE8008124425CBF01F5801E07
:103900009EEAC47F02D4F0BCBDE80081244238D4D2
:10391000A1F1C041F0BCBDE8004100F003B94FEA9D
:10392000D02040EA41504FEAD1214FEAD22242EA68
:1039300043524FEAD323A7FB028607FB036605FB2E
:1039400002661EEA0E0F58BFA6EB0056B6EB0056F5
:103950004FEA520E4EEAC37E18EB0E0E56EB530E94
:10396000BDD518EB02085E417F1C55F10005B6E796
:103970004FF480154FF000074FF000064FF000089D
:10398000ADE701F1C04101F000414FF00000F0BC93
:10399000BDE800810CEA131511EA0C1F00D00CE001
:1039A00013EA0C1F00F025804FF0000081EA0301AC
:1039B00001F00041F0BCBDE80081F0BCBDE8004171
:1039C00081EA030100F0AEB8F0BCBDE8004170B57B
:1039D00000F05AF8097EFC3E00F007B84FF00000F6
:1039E00081EA030101F00041704781EA030100F020
:1039F00099B8F0BCBDE8004122494FF00000704783
:103A0000FFFDFBF9F7F5F4F2F0EEEDEBE9E8E6E4A3
:103A1000E3E1E0DEDDDBDAD8D7D5D4D3D1D0CFCD2A
:103A2000CCCBCAC8C7C6C5C4C2C1C0BFBEBDBCBB63
:103A3000BAB9B8B7B6B5B4B3B2B1B0AFAEADACAB5E
:103A4000AAA9A8A8A7A6A5A4A3A3A2A1A09F9F9E38
:103A50009D9C9C9B9A9999989797969595949393EA
:103A6000929191908F8F8E8E8D8C8C8B8B8A898981
:103A70008888878786858584848383828281818004
:103A80000000FF070000F87F0EF1020E2EF0030E7B
:103A90005EF8046B364205D4012A43EB030515F5A5
:103AA000001F12D8012841EB010C1CF5001F0CD897
:103AB0000ED14FEAD17C0CEB4C0C0CF1020C15F53D
:103AC000001F08BF4CEBD37C04E04FF0080C01E072
:103AD0004FEAD37C0CEB4C0526FA05F606F00706F8
:103AE000B6F1040C06D20EEB860CBDE870404CF02B
:103AF000010C6047DFE80CF0090B02024FF00041B7
:103B0000A1F500214FF0000070BD194610460128B4
:103B100051EB010418BFD4F5001484BF002001F05C
:103B2000004170BD0808A0F500114FEA310170474F
:103B300043004FEAD30C4FEA3C0C43401FBF400701
:103B40000CF1605113F0FE4F70471CF0006F03D171
:103B50000CF00041002070470CF0004343EA507025
:103B600040EACC0010B500F00EF800BF0000009253
:103B70004FEA0001FFF7D6BF4FF00041A1F5002149
:103B80004FF0000070470EF1020E2EF0030E5EF8AB
:103B9000044B244204D44FEA4102B2F17F4F11D8C2
:103BA0004FEA4003B3F17F4F0CD80ED14FEAD07CDF
:103BB0000CEB4C0C0CF1020CB2F17F4F08BF4CEB3C
:103BC000D17C04E04FF0080C01E04FEAD17C0CEB13
:103BD0004C0324FA03F404F00704B4F1040C06D2F5
:103BE0000EEB840CBDE810404CF0010C6047DFE8A0
:103BF0000CF0070802024FF00040A0F5800010BD55
:103C00000846420018BFD2F1807288BF00F0004021
:103C100010BD4FF04070E1EE100A7047FF2141EAFD
:103C2000D050C00570470000000000006E83F9A26C
:103C30002915444ED15727FCC0DD34F5999562DB38
:103C40004190433CAB6351FE0000000000000000C7
:103C50000102030406070809000000000102030432
:103C6000803C00080000002010000000C401000893
:103C7000903C00081000002028090000E001000826
:103C80000024F4000100000010000000000000000B
:040000050800018965
:00000001FF
