:020000040800F2
:10000000E808002055020008CD200008111F000854
:10001000C9200008D1040008C5270008000000001E
:10002000000000000000000000000000D5200008D3
:10003000E104000800000000D120000809220008A7
:100040006F0200086F0200086F0200086F020008CC
:100050006F0200086F0200086F0200086F020008BC
:100060006F0200086F0200086F0200086F020008AC
:100070006F0200086F0200086F0200086F0200089C
:100080006F0200086F0200086F0200086F0200088C
:100090006F0200086F0200086F0200086F0200087C
:1000A0006F0200086F0200086F0200086F0200086C
:1000B0006F0200086F0200086F0200086F0200085C
:1000C0006F0200086F0200086F0200086F0200084C
:1000D0006F020008952700086F0200086F020008F1
:1000E0006F0200086F0200086F0200086F0200082C
:1000F0006F0200086F0200086F0200086F0200081C
:100100006F0200086F0200086F0200086F0200080B
:100110006F0200086F020008C92200086F02000881
:100120006F0200086F020008D50400086F02000883
:100130006F0200086F0200086F0200086F020008DB
:100140006F0200086F0200086F0200086F020008CB
:100150006F0200086F0200086F0200086F020008BB
:100160006F0200086F0200086F0200086F020008AB
:100170006F0200086F0200086F0200080000000014
:100180006F0200086F02000800F002F800F052F859
:1001900014A696E8000CB244B344DA4501D100F04D
:1001A00049F8BAE80F000FA696E83000A5EB040561
:1001B00004EB0607AAEB0704A7F101074FEA1515A0
:1001C0004FEA3414A4F10104AC4201D300F032F838
:1001D00013F0010F18BFFB1A43F0010300F001F800
:1001E000DBE718476037000080370000103A24BF73
:1001F00078C878C1FAD8520724BF30C830C144BF8C
:1002000004680C6070470000704700000023002461
:1002100000250026103A28BF78C1FBD8520728BF16
:1002200030C148BF0B6070471FB503F058FB1FBDBE
:1002300010B510BD00F016F91146FFF7F5FF02F0FA
:10024000C5FB00F034F903B4FFF7F2FF03BC00F084
:1002500037F900000948804709480047FEE7FEE7F4
:10026000FEE7FEE7FEE7FEE7FEE7FEE7FEE7FEE766
:1002700004480549054A064B70470000B5220008AE
:1002800089010008E8020020E8080020E8040020B6
:10029000E804002053EA020C00F069802DE9F04BDD
:1002A0004FF00006002B1FBFB3FA83F503FA05F4E5
:1002B00024FA05F65E4012BF1643B2FA82F502FA3E
:1002C00005F4C5F120051EBF22FA05FC44EA0C0422
:1002D000203556EA044C4FEA144418BF641C4FF012
:1002E00000084FF00009904271EB030C39D300294C
:1002F00019BFB1FA81F701FA07F6B0FA80F700FAF0
:1003000007F6C7F120071EBF20FA07FC46EA0C06D5
:100310002037B6FBF4FCA7EB0507103F07F01F0BD7
:10032000CBF120062CFA06F60CFA0BFB44BFB346C1
:100330000026202FA4BF5E464FF0000B5BEA060CA0
:1003400008BF4FF0010B19EB0B0948EB0608ABFB9C
:10035000027C06FB02CC0BFB03CCC01B71EB0C0137
:10036000C1E70B46024641464846BDE8F08B13B54F
:10037000084318BF4FF0FF300146AFF30080BDE8DF
:100380001C40704710B5203AC0F00B80B1E81850FF
:10039000A0E81850B1E81850A0E81850203ABFF46F
:1003A000F5AF5FEA027C24BFB1E81850A0E818500E
:1003B00044BF18C918C0BDE810405FEA827C24BF62
:1003C00051F8043B40F8043B08BF7047D20728BFF0
:1003D00031F8023B48BF11F8012B28BF20F8023B3F
:1003E00048BF00F8012B70474FF0000200B51346DC
:1003F00094469646203922BFA0E80C50A0E80C5045
:10040000B1F12001BFF4F7AF090728BFA0E80C50F5
:1004100048BF0CC05DF804EB890028BF40F8042BEE
:1004200008BF704748BF20F8022B11F0804F18BF5B
:1004300000F8012B704770477047704710B500F007
:1004400009F8006810BD10B5044600F003F8046018
:1004500010BD0000004870471000002000487047A1
:10046000100000207546FFF7F9FFAE46050069460B
:10047000534620F00700854618B020B5FFF7F8FE78
:10048000BDE820404FF000064FF000074FF0000895
:100490004FF0000BAC46ACE8C009ACE8C009ACE8D2
:1004A000C009ACE8C00921F007018D46704710B5BE
:1004B0000446AFF300802046BDE81040FFF7C3BEFE
:1004C00001491820ABBEFEE726000200704700007D
:1004D000FEE7000040F2D000C2F2000000F058B881
:1004E0007047000072B600BFFEE7000070B5866D71
:1004F000044600F0DFFA94F83510022925D10546AC
:100500002068216C026822F016020260426922F023
:100510008002426109B9A16C19B1016821F008019A
:100520000160016821F00101016000BF20680068DE
:10053000C0070ED000F0BEFA401B0628F6D32020DC
:100540006065032084F835000CE0802060650120A0
:1005500008E0E06D3F2101FA00F0B060012084F86E
:1005600035000020002184F8341070BD90F835105B
:10057000022909D1052180F835100068016821F0B1
:100580000101016000207047802141650120704712
:10059000F0B581B00021009140F20001C2F20001EB
:1005A0000B68D0E9166148F2B51537680822C1F624
:1005B0004E358A403A42A3FB05350CD003681C68CF
:1005C000640708D51C6824F004041C60B260426D06
:1005D00042F00102426501228A403A4208D0036893
:1005E0005B691B0604D5B260426D42F002024265AF
:1005F00004228A403A4208D003681B689B0704D54E
:10060000B260426D42F00402426510228A403A42D2
:1006100016D001680B681B0712D5B2600B680A6818
:100620005B0306D4D20506D40A6822F008020A60E9
:1006300001E011033FD4016C11B104468847204604
:10064000C26D202101FA02F33B4241D001680F68DC
:10065000FF063DD5B36090F835700B68052F1AD1B1
:1006600023F016030B604B6923F080034B61036C8E
:100670000BB9836C1BB10B6823F008030B603F219F
:100680009140B160012180F83510016D002280F8A1
:100690003420D9BB3EE00A685B0310D4D20512D4E3
:1006A0000A6822F010020A60012180F8351000214A
:1006B00080F8341007E0816C0029BED1C0E7110337
:1006C00001D4416C00E0C16B11B10446884720465B
:1006D000416DF9B1416DC90716D0052180F835107B
:1006E0000168AA0A0B6823F001030B60009B013329
:1006F0009342009302D80B68DB07F7D1012180F801
:100700003510002180F83410C16C19B101B0BDE87A
:10071000F040084701B0F0BD2DE9F041044600F07B
:10072000C9F9C4B10546022084F8350000202168CB
:1007300084F83400086820F001000860206801682F
:10074000C9070BD000F0B6F9401B0528F6D90321E4
:10075000202203207AE00120BDE8F081016848F200
:100760003F02CFF21002D4E9013501EA020ED4E9CA
:10077000032143EA0E032B43D4E9056C1A43D4E961
:1007800007781143314341EA0702616A42EA0802ED
:10079000042942EA0C0303D1D4E90B273A4313435B
:1007A00003604269042922F0070241EA02012DD1C7
:1007B000D4E90A5341EA050143B3BCF5005F08D010
:1007C000BCF1000F12D1022D16D0012D07D09DB122
:1007D00019E0032D17D8DFE805F00B0F0B02A3F18A
:1007E000C072B2FA82F252094AB90FE0032D02D266
:1007F000012222B90AE006D1C3F3006232B101211D
:100800004022012022E00022002AF8D100F0F80264
:100810004AF6AB23103ACAF6AA23A2FB033743F6E3
:100820003C1341613909C0F60003595C40F2FF33C3
:1008300098435F2A4FF03F0288BF0430C4E9160195
:1008400002FA01F18160002201210020626584F832
:100850003510BDE8F081000090F834C0BCF1010F04
:1008600004BF0220704770B54FF0010C80F834C00F
:10087000D0F858E090F835C0BCF1010F37D14FF0F7
:10088000020C80F835C04FF0000CC0F854C0D0F80E
:1008900000C08468056CC06DDCF80060402C26F454
:1008A0008026CCF80060CCF804300B4604BF134619
:1008B0000A463F2101FA00F0CCF80830CCF80C20B1
:1008C000CEF80800DCF8000040F01600CCF800007C
:1008D0002DB1DCF8000040F00800CCF80000DCF896
:1008E000000040F00100CCF80000002070BD0021A5
:1008F00080F83410022070BDB0B5044600F0DAF87C
:10090000054640F20400C2F200000078611C18BFE6
:10091000044400BF00F0CEF8401BA042FAD3B0BDA3
:100920002DE9F04F83B000F1200200F13E4741F67F
:100930000045009207F1FF77C4F2020508224FEA52
:10094000B726A84208BF0722072E38BF4FEAB722B2
:1009500000274FF0000A4FF0000801920AE000BFA4
:1009600008F101080AF1020AB8F1100F07F10407B3
:1009700000F09D800D68012202FA08FC15EA0C09BE
:10098000EED04D68032205F0030BABF10106012EFA
:1009900002FA0AFE10D88668CC6826EA0E0604FA27
:1009A0000AF4344384604468C5F3001524EA0C0655
:1009B00005FA08F52E434660BBF1030F1BD0C6684D
:1009C0008D6826EA0E0605FA0AF52E43BBF1020FE2
:1009D000C66010D16FF00302009D02EA580655F878
:1009E00006C007F01C040F220B69A2402CEA020289
:1009F000A3401A43AA5102684B6822EA0E0203F090
:100A0000030606FA0AF6324313F4403F0260A7D009
:100A1000002243F644030292C4F202031A6843F62A
:100A2000004442F480421A601A68C4F2010402F4DD
:100A300080420292029A28F003024FF6084C2244A8
:100A4000CFF6FF7C52F80C3007F00C060F25B540AE
:100A5000AB43019D05FA06F6334342F80C30A26819
:100A60004B6842EA090643F60C4CDD0258BF22EA05
:100A70000906A660C4F2010CDCF800209D0242EADF
:100A8000090658BF22EA0906CCF8006062689D0397
:100A900042EA090658BF22EA090666602268DB03BB
:100AA00042EA090658BF22EA0906266058E703B061
:100AB000BDE8F08F40F2E020C2F20000006870470D
:100AC00040F2040040F2E021C2F20000C2F2000154
:100AD00000780A68104408607047000080B543F64B
:100AE0000040C4F20200016841F400710160016835
:100AF00041F480610160016841F48071016003206C
:100B000000F0BCF80F2000F005F800F05DF80020C0
:100B100080BD000070B586B0002543F64001019508
:100B2000C4F202010A68044642F010020A60096831
:100B300001A801F0100101910199694600F05EF9E8
:100B4000049E002E18BF012600F078F94DF683614F
:100B5000B040C4F21B31A0FB01014FF0FF3000EBAD
:100B6000914140F2781041F20002C2F20000C4F25A
:100B7000000240F2E733C0E90021C0E902530561F9
:100B8000856100F0C7FB08B106B070BD40F2781077
:100B9000C2F2000000F0EEFB0028F5D10546362039
:100BA00000F02EF80F2C0CD836202146002200F041
:100BB00039F840F20800C2F200000460284606B08E
:100BC00070BD012006B070BD82B0002043F6400128
:100BD0000190C4F202014A6842F480424A604A68C5
:100BE00002F480420192019A0090086840F080501F
:100BF0000860086800F080500090009802B07047CC
:100C0000002848BF704700F01F01012202FA01F1DD
:100C10001C2202EAD0004EF20012CEF200028150F5
:100C20007047000010B54EF60C5CCEF2000CDCF8FC
:100C30000030C3F3022E8EF00704042C28BF0424D6
:100C4000BEF103034FF0FF3E0EFA04F438BF002359
:100C5000A14399400EFA03F39A43114300F1604215
:100C600000F00F03090102F56442043B63440028CD
:100C700048BF03F10C02117010BD00004EF60C517C
:100C8000CEF200010A684FF6FF031A4060F30A2211
:100C900042F0806040F0FD7008607047002804BF9B
:100CA000012070472DE9F04143F60808C4F202081C
:100CB0000446D8F8F8030D4600F00700884207D232
:100CC00088F8F853D8F8F80300F00700A84276D166
:100CD0002068810717D5410705D5D8F8001041F4E1
:100CE000E051C8F80010010705D5D8F8001041F40C
:100CF0006041C8F80010D8F80010A26821F0F00197
:100D00001143C8F80010C0073FD1D8F8F80300F02D
:100D10000700A84207D988F8F853D8F8F80300F07C
:100D20000700A8424BD12068410707D5D8F800102A
:100D3000E26821F4E0511143C8F80010000708D51B
:100D4000D8F80000216920F4604040EAC100C8F8EA
:100D5000000000F09BF8D8F8001043F62412C1F30D
:100D60000311C0F60002515C40F2000220FA01F1CA
:100D700040F20800C2F200000068C2F200021160F6
:100D8000FFF7C8FE0020BDE8F0816068811E0229DF
:100D900007D258F8081C89015CBF0120BDE8F0812A
:100DA00010E0012807D158F8081C89035CBF012016
:100DB000BDE8F08106E058F8081C890702D401203C
:100DC000BDE8F081D8F8001021F003010843C8F80D
:100DD0000000FFF76FFE064641F28837D8F80000A2
:100DE000616800F00C00B0EB810F8ED0FFF762FE5F
:100DF000801BB842F2D90320BDE8F0810F220260C7
:100E000043F60802C4F20202136803F003034360CE
:100E1000136803F0F0038360136803F4E053C360C6
:100E2000D2F800C04FF4E05303EADC030361D2F8C8
:100E3000F80300F0070008607047000040F200006F
:100E400043F60801C2F20000C4F20201006809681A
:100E500043F63412C1F38221C0F60002515CC8404F
:100E60007047000040F2000043F60801C2F20000A3
:100E7000C4F202010068096843F63412C1F342313A
:100E8000C0F60002515CC8407047000010B543F640
:100E90000404C4F20204606800F00C0008280AD0C0
:100EA000042819BF42F20040C0F2F40047F64000A7
:100EB000C0F27D1010BD206821682368490247F602
:100EC0004001C0F27D1100F03F02C3F388105CBF07
:100ED00042F20041C0F2F401A1FB00010023FFF740
:100EE000D9F921680222C1F3014102EB4101B0FBB3
:100EF000F1F010BD002804BF012070472DE9F0413A
:100F000082B00446007843F60006C007C4F2020629
:100F100049D0B06800F00C00042809D13068800383
:100F200041D5606800283ED1012002B0BDE8F081C3
:100F3000B06800F00C00082802D170684002EDD4BF
:100F400065683068B5F5A02F05D0B5F5803F09D1AB
:100F500040F480300CE040F480203060306840F491
:100F6000803005E020F480303060306820F480204C
:100F70003060FFF79FFD002D054611D030688003DB
:100F800011D4FFF797FD401B6428F7D928E100BF73
:100F9000FFF790FD401B64284FF0030000F2E08053
:100FA00030688003F4D4207880071BD5B06810F037
:100FB0000C0F09D0B06800F00C00082840F08580C4
:100FC0007068400200F181803068800703D5E068D6
:100FD000012840F09A803068216920F0F80040EA4A
:100FE000C10030602078000734D42078400746D410
:100FF000A5695DB3B06800F00C00082840F09C8043
:10100000012D00F082807068E16900F480028A425C
:101010007BD1216A00F03F028A4276D147F6C07147
:10102000626A0140B1EB821F6FD1A16A4FF6FF7374
:10103000C903994300F44032A1F580318A4264D15A
:10104000E16A00F07060B0EB016F5ED1002002B089
:10105000BDE8F081606900285BD00020C4F2472021
:101060000121C0F8801EFFF725FD0546706F80073F
:10107000BBD4FFF71FFD401B0228F7D9B0E0306C4E
:101080005FEAC0080AD400200190306C40F0805024
:101090003064306C00F080500190019847F20007F6
:1010A000C4F200073868C00526D4386840F4807060
:1010B0003860FFF7FFFC05463868C0051CD4FFF711
:1010C000F9FC401B0228F7D98AE0E068002840F2CA
:1010D0000000C4F2472053D001210160FFF7EAFC71
:1010E000054600BF306880073FF575AFFFF7E2FCAB
:1010F000401B0228F6D973E0A568306F052D51D04A
:10110000012D56D140F0010059E0012002B0BDE8A8
:10111000F0810020C4F247200021C0F8801EFFF7B4
:10112000C9FC0546706F80077FF55FAFFFF7C2FC13
:10113000401B0228F6D953E00027C4F247270020BD
:101140003866FFF7B7FC022D05460DD130688001E7
:101150005DD5FFF7AFFC401B02284FF00300F5D927
:1011600002B0BDE8F08100BF306880017FF56EAF4E
:10117000FFF7A0FC401B02284FF00300F4D9EFE773
:1011800000210160FFF796FC054600BF306880072C
:101190007FF528AFFFF78EFC401B02284FF00300BD
:1011A000F4D9DDE740F004003067306F40F0010013
:1011B00005E020F001003067306F20F00400306758
:1011C000FFF778FC002D054641F2883713D000BFA9
:1011D000306F800712D4FFF76DFC401BB842F7D97F
:1011E000032002B0BDE8F081FFF764FC401BB84269
:1011F0004FF00300B4D8306F8007F5D4B8F1000F7A
:101200003FF5F6AE306C20F080503064F0E604F12B
:101210001C052FCD084340EA8210D9034FF6FF7218
:101220009143A1F5803140EA0560084370600120D8
:101230003866FFF73FFC0446306880013FF506AF93
:10124000FFF738FC001B02284FF00300F4D987E7B2
:10125000704700007047000090F83C20012A4FF0D2
:10126000020255D010B5012380F83C3080F83D20B3
:101270000268D2F804E0D2F808C00C682EF07003BF
:10128000234341F2FF74C4F20004A24253600DDC18
:1012900040F2FF73C4F200039A4215DCB2F1804FB2
:1012A00029D040F20043C4F2000322E040F2FF33B1
:1012B000C4F201039A4212DC41F60003C4F20003B7
:1012C0009A4218D0002312E040F60003C4F2000353
:1012D0009A4210D040F60043C4F2000309E044F201
:1012E0000003C4F201039A4205D040F20043C4F265
:1012F00001039A4204D149682CF08003194391609C
:101300000121002280F83D1080F83C20BDE810400B
:1013100010467047002804BF0120704710B50446EE
:1013200090F83D0028B9002084F83C00204600F0E9
:101330001FF8022084F83D002068211D00F0CAFF3C
:10134000012084F8460084F83E0084F83F0084F8C9
:10135000400084F8410084F8420084F8430084F897
:10136000440084F8450084F83D00002010BD0000D2
:101370007047000090F83D1001291CBF0120704704
:10138000022180F83D10006841F2FF72C168C4F28A
:101390000002904241F00101C1600DDC40F2FF719A
:1013A000C4F20001884215DCB0F1804F29D040F230
:1013B0000041C4F2000122E040F2FF31C4F2010119
:1013C000884212DC41F60001C4F20001884218D0C4
:1013D000002112E040F60001C4F20001884210D062
:1013E00040F60041C4F2000109E044F20001C4F2F9
:1013F0000101884205D040F20041C4F20101884257
:1014000006D1816801F00701062904BF002070475A
:10141000016841F001010160002070477047000041
:1014200070B504460068C5680669B10716D515F0A1
:10143000020113D06FF0020101610121217780695F
:10144000800703D02046FFF7E9FF05E0204600F0C3
:101450008DF8204600F0E0F900202077700718D5BD
:1014600015F0040015D020686FF00401016102211D
:101470002177806910F4407F03D02046FFF7CEFF2C
:1014800005E0204600F072F8204600F0C5F9002083
:101490002077300717D515F0080014D020686FF0BA
:1014A0000801016104212177C069800703D020462B
:1014B000FFF7B4FF05E0204600F058F8204600F0A2
:1014C000ABF900202077F00618D515F0100015D0E4
:1014D00020686FF01001016108212177C06910F4C4
:1014E000407F03D02046FFF799FF05E0204600F03B
:1014F0003DF8204600F090F900202077F00718BF53
:1015000015F0010002D1300609D412E020686FF016
:1015100001010161204600F00FFA300609D515F0EF
:10152000800006D020686FF0800101612046FFF73F
:101530008FFE700609D515F0400006D020686FF0C8
:1015400040010161204600F001FAB00658BF70BDAD
:1015500015F0200008D021686FF0200220460A61B3
:10156000BDE87040FFF776BE70BD00007047000018
:1015700090F83C30012B04BF022070474FEAB202C2
:101580000123032A80F83C3000F2F8802DE9F04373
:10159000DFE802F002AF3D7D036840F200461C6ABE
:1015A0001A6A24F0020422F001021A621A46D3F8E1
:1015B00004C052F818EF8F6843F48065C4F2010646
:1015C000B54244EA070405D1CF6824F00C0427F0A3
:1015D00004073C430F68B54206D1D1E905582CF405
:1015E00040762E4346EA080C2EF073063743C3F8C4
:1015F00004C09F614F6809695F631C629F6947F07F
:1016000008079F619F6927F004079F61B0E00368A6
:1016100040F200481C6A1A6A24F4007422F48072B2
:101620001A621A46D3F804C052F81CEF8F6843F4CC
:101630008065C4F20108454544EA072408D1CF6813
:1016400040F2FF463F0224F4406427EA0606344392
:10165000D1F80090454506D1D1E905562CF4405704
:101660002E4347EA061C2EF0730747EA0907C3F822
:1016700004C0DF614F680969DF631C62DF6947F0FE
:101680000807DF61DF6927F00407DF6170E00368A6
:1016900040F20045D3F820C01A6A43F4806722F470
:1016A00080521A621A465C6852F81C8FD1F800E02A
:1016B0008E68C4F20105AF4204D14D6924F4804420
:1016C00044EA85142CF4005747EA063728F4E64626
:1016D00046EA0E265C60DE614E6809691E641F6280
:1016E000DF6947F40067DF61DF6927F48067DF6146
:1016F0003DE0036840F200481C6A1A6A24F02004A6
:1017000022F010021A621A46D3F804C052F818EFF9
:101710008F6843F48065C4F20108454544EA071424
:1017200007D1CF686FF0400624F0C00406EA071620
:101730003443D1F80090454506D1D1E905562CF443
:1017400040672E4347EA860C2EF4E64747EA09270E
:10175000C3F804C09F614F6809699F631C629F6959
:1017600047F400679F619F6927F480679F610902C2
:101770001368194300231160BDE8F043002180F88D
:101780003C10184670470000002804BF0120704735
:1017900010B5044690F83D0028B9002084F83C00BC
:1017A000204600F01FF8022084F83D002068211D2B
:1017B00000F090FD012084F8460084F83E0084F893
:1017C0003F0084F8400084F8410084F8420084F827
:1017D000430084F8440084F8450084F83D0000206C
:1017E00010BD0000006840F60041C4F200018842CC
:1017F00018BF704781B00020009043F64000C4F24B
:101800000200016841F008010160006800F0080072
:101810000090009801B070477047000041220829ED
:1018200008BF4022042908BF3F22002908BF3E22EA
:10183000825C012A1CBF01207047022241B10829A5
:1018400009D0042914BF80F8412080F83F2004E02B
:1018500080F83E2001E080F84020006801F01F0180
:101860000122036A02FA01F123EA01020262026A1A
:101870000A4341F2FF71C4F20001884202620BDCAC
:1018800040F2FF71C4F20001884213DCB0F1804FD6
:1018900045D040F2004115E040F2FF32C4F20102AF
:1018A000904214DC41F60003C4F20003984236D0A3
:1018B000002314E040F60001C4F2000188422ED05B
:1018C00040F60041C4F20001884228D02EE044F2E4
:1018D0000003C4F20103984221D040F20043C4F255
:1018E0000103984222D1436C884243F4004343648D
:1018F000C6DD904207DC41F60001C4F200018842D7
:101900000DD0002107E044F20001C4F20101884239
:1019100005D040F20041C4F20101884206D181683D
:1019200001F00701062904BF00207047016841F05B
:101930000101016000207047006841F20001C4F21B
:101940000001884218BF7047FFF7BAB8704700001F
:101950007047000010B504460068406994F84110D3
:10196000212920D110F080001DD000BF206850E850
:10197000050F216820F0800041E80502002AF5D11A
:10198000A06B002818BFFEF7B1FD00BF206850E82B
:10199000030F216820F0C00041E80302002AF5D1BE
:1019A000202084F841002068406994F842102229E0
:1019B00039D110F0400036D0206850E8050F21687A
:1019C00020F0400041E80502002AF5D1E06B002834
:1019D00018BFFEF78BFD00BF206850E8030F216899
:1019E00020F4907041E80302002AF5D1206850E805
:1019F000050F216820F0010041E80502002AF5D119
:101A0000206B01280AD100BF206850E8030F21682D
:101A100020F0100041E80302002AF5D1202084F8CC
:101A2000420000202063002010BD0000704700002D
:101A3000B0B582B001680A68CC684B6902F02F0526
:101A4000202D04F0200505D125B102B0BDE8B0403D
:101A500000F07ABD5FEA027C1EBF03F0010E04F4C1
:101A6000907313EB0E0340D1036BD50618D5012BF1
:101A700016D114F0100313D0002201920A680192CB
:101A80004A680192019A4969490647D4818DC28DFD
:101A9000C38D002B18BF914240F01A8102B0B0BD37
:101AA00013062AD514F0800327D090F84120212A6C
:101AB000F4D18268B2F5805F03D10269002A00F098
:101AC0003A81026A531C036212784A60C28C013A5E
:101AD0001304C284E2D1C86820F08000C860C868DE
:101AE00040F04000C86002B0B0BDD10718BF14F488
:101AF000807167D151076BD471E05206CED514F0D6
:101B00004002CBD0CA6822F04002CA60202180F88F
:101B1000411002B0BDE8B04000F0F8B9C26B1168E6
:101B200049688BB2002B42D0858DAB423FD2C18534
:101B3000D169B1F5807F33D0016851E8031F026895
:101B400021F4807142E80313002BF5D1016851E8BC
:101B5000051F026821F0010142E80513002BF5D1B1
:101B6000016851E8051F026821F0400142E80513B1
:101B7000002BF5D1202180F842100021016300BF25
:101B8000016851E8031F026821F0100142E80313C5
:101B9000002BF5D1C16B04460846FEF7A7FC204692
:101BA00002214163818DC28D891A89B2B9E0818D8C
:101BB00099427FF473AFD269B2F5807F7FF46EAF44
:101BC0000222ADE0416C41F001014164510706D5AC
:101BD000BEF1000F03D0416C41F002014164910756
:101BE00006D5BEF1000F03D0416C41F00401416401
:101BF000BCF1000F06D55EEA050103D0416C41F04F
:101C000008014164416C00293FF448AF910604D5B6
:101C10001DB1044600F098FC204601684969426CF9
:101C200001F0400102F0080289184AD0016851E829
:101C3000031F026821F4907142E80313002BF5D1D1
:101C4000016851E8051F026821F0010142E805130F
:101C5000002BF5D1016B01290AD100BF016851E8C1
:101C6000031F026821F0100142E80313002BF5D195
:101C7000202180F84210002101630168496949066A
:101C800054D500BF016851E8051F026821F04001EA
:101C900042E80513002BF5D1C16B002946D042F272
:101CA0000142C0F60002044608460A65FEF75EFCE3
:101CB00000283FF4F3AEE06B016D02B0BDE8B04028
:101CC00008470446FFF7B2FE0020606402B0B0BDD2
:101CD000891A00BF026852E8032F036822F4907249
:101CE00043E80325002DF5D1026852E8052F03686B
:101CF00022F0010243E80525002DF5D1202280F8CD
:101D000042200022026300BF026852E8032F0368EA
:101D100022F0100243E80325002DF5D1022289B2FA
:101D2000426302B0BDE8B040FFF712BE02B0BDE8AA
:101D3000B040FFF77BBE026A32F8023B6FF35F23CD
:101D40004B600262C2E60000002804BF0120704719
:101D500010B5044690F8410028B9002084F84000EE
:101D6000204600F021F8242084F841002068C16852
:101D700021F40051C160204600F046FC2068016952
:101D800021F490410161416921F02A014161C1685A
:101D900041F40051C16000202021606484F84110AA
:101DA00084F84210606310BD70B586B0044641F2FD
:101DB00000002168C4F20100002681420596CDE9A9
:101DC00003660296019601D006B070BD43F630015D
:101DD0000096C4F202014A6900F5704042F0100218
:101DE0004A614A6902F010020092009A00960A685D
:101DF00042F001020A60096801F0010100910099B6
:101E00004FF4C06101910221CDE902160321049132
:101E10000721059101A9FEF783FD40F2D00546F2A6
:101E20004040C2F20005C4F202004FF000614FF4DE
:101E3000806285E843002846C5E90362C5E9056676
:101E4000C5E907666E62FEF767FC002818BFFEF75B
:101E500049FB252000210022E563AC63FEF7E2FE8A
:101E60002520FEF7CDFE06B070BD0000016841F2EE
:101E700000030A68C4F2010399422FD112F0100244
:101E800008BF704780B582B0002201920A680192B3
:101E9000496801910199FFF75DFD40F2D000C2F25F
:101EA0000000006840F2DE214068C2F20001C0F18B
:101EB0006400088082B240F2082040F27821C2F229
:101EC0000000C2F20001FEF75DFA40F2DC20C2F22F
:101ED00000000121017002B0BDE8804070470000A1
:101EE00090F84230202B1CBF0220704700294FF091
:101EF000010318BF002A01D118467047002303636D
:101F000000F0F2BB7047000070470000704700000F
:101F1000FEE7000080B582B00020019043F630005B
:101F2000C4F202000168002241F4800101600068EF
:101F3000002100F48000019001983A20FEF772FE23
:101F40003A2002B0BDE88040FEF75ABE81B00020C2
:101F5000009043F63000C4F20200016841F0010134
:101F60000160006800F001000090009801B0704727
:101F7000B0B590B040F6004540F23010C4F2000514
:101F80000024C2F200004F2144F61F620994CDE9FB
:101F90000744CDE90544CDE90344CDE90144C0E956
:101FA0000051C0E9024204618461FFF7EDFB0028A3
:101FB00018BFFEF797FA40F23010C2F2000008A9ED
:101FC000CDE90844FFF748F9002818BFFEF78AFA60
:101FD000602001900020CDE90200059040F2301011
:101FE000C2F2000001A90022FFF7C2FA002818BFC0
:101FF000FEF778FA40F23010C2F2000001A9042284
:10200000FFF7B6FA002818BFFEF76CFA40F230105E
:10201000C2F2000001A90822FFF7AAFA002818BF9F
:10202000FEF760FA40F23014C2F2000401A9204623
:102030000C22FFF79DFA002818BFFEF753FA21681B
:102040000020A9420F90CDE90D000C900B9001D01B
:1020500010B0B0BD43F630010A90C4F202010A6824
:1020600042F001020A60096801F001010A910A992F
:102070000F210B910221CDE90C11CDE90E0105F5DF
:10208000FA300BA9FEF74CFC10B0B0BD80B540F2A1
:10209000C01041F20001C2F20000C4F201010023AD
:1020A0004FF00C0C4FF4E13280E80E00C0E903332E
:1020B000C0E905C3C361FFF747FE002808BF80BD24
:1020C000BDE88040FEF70EBAFEE70000FEE7000024
:1020D0007047000070470000844603284FF001005D
:1020E00088BF70472DE9F04140F280060DF1180ECF
:1020F0000CEB8C04C2F200069EE8204106EB84073C
:1021000046F824103882084611467A603B817D816A
:10211000A7F80C80A7F80EE0FFF780FB0020BDE8D1
:10212000F041704740F280016FF01300C2F20001ED
:10213000002200BF0B1814303C289A84FAD10020EA
:102140007047000003285AD840F2800100EB80005D
:10215000C2F2000101EB8001088A00284FD0B0B51F
:10216000D1E90005B1F80CE00068CB890A894C89F7
:102170004FEAB501D0F82CC0032984BF0220B0BDBE
:1021800001EE10EAB8EE411A02EE103AB4EE401A2F
:10219000B8EE422AF1EE10FAC8BFB0EE410AB4EE32
:1021A000420AF1EE10FAC8BFB0EE420AA41A30EEAD
:1021B000410A01EE104AB8EEC11AA3EB0E0320EE5D
:1021C000010A01EE103AB8EEC11A80EE010A01EEE2
:1021D000102AB8EE411A9FED0B2A00EB810030EE79
:1021E000010A01EE10CAB8EE411A20EE010A80EE93
:1021F000020ABCEEC00A80ED0D0A0020B0BD01202D
:10220000704700BF00409C467047000070B592B018
:1022100006AC20463021FEF7E7F8002543F64000E3
:102220000595CDE90355CDE901550095C4F20200AD
:102230000168022641F080510160006800F0805082
:102240000090009847F200000095C4F20000016879
:1022500041F480410160006800F4804000900098E3
:102260000120099010200A9008200E90A020CDE9AE
:102270000F060420119020460696CDE90C65FEF766
:1022800039FE10B172B600BFFEE70F20CDE901069E
:102290004FF4A05004904FF48050059001A8052100
:1022A0000395FEF7FBFC10B172B600BFFEE712B05B
:1022B00070BD00004EF68850CEF20000016841F477
:1022C000700101607047000040F27810C2F2000017
:1022D000FFF7A6B8B0B540F6FF3E0568C4F2000EA1
:1022E00040F2004C7045C4F2010C0FDCB0F1804F9D
:1022F00019D040F20043C4F20003984213D040F6D4
:102300000003C4F2000398420DD011E040F60043F0
:10231000C4F20003984206D0604504D00023C4F202
:102320000103984204D14B6825F0700243EA02058C
:1023300041F6FF73C4F2000398420FDC704521DCC4
:10234000B0F1804F41D040F20043C4F20003984204
:102350003BD040F60003C4F2000334E043F6FF73C1
:10236000C4F2010398421EDC42F20003C4F20003EF
:1023700098422AD00023C4F20103984225D0604538
:1023800023D027E040F60043C4F2000398421CD05B
:1023900041F60003C4F20003984216D041F6004310
:1023A000C4F200030FE044F20003C4F201039842B8
:1023B0000BD044F60003C4F20103984205D044F266
:1023C0000043C4F20103984204D1CB6825F4407263
:1023D00043EA02050A688C684B69C46240F4806471
:1023E0008262644504BF09690163026825F08001C7
:1023F00042F0040219430260012242610160B0BD53
:10240000806B0021C185FFF711BB0000806B016864
:10241000496990F84120212A11D111F080010ED094
:102420000021C184016851E8031F026821F0C00146
:1024300042E80313002BF5D1202180F841100168F8
:10244000496990F84220222A2BD111F0400128D06E
:102450000021C185016851E8031F026821F49071D1
:1024600042E80313002BF5D1016851E8051F02680B
:1024700021F0010142E80513002BF5D1016B012980
:102480000AD100BF016851E8031F026821F0100162
:1024900042E80313002BF5D1202180F842100021DF
:1024A0000163416C41F010014164FFF7BFBA0000C5
:1024B0000168806B0968C90530D40021C18500BF5F
:1024C000016851E8031F026821F4807142E8031398
:1024D000002BF5D1016851E8051F026821F00101C8
:1024E00042E80513002BF5D1016851E8051F026889
:1024F00021F0400142E80513002BF5D1202180F89E
:102500004210016B012909D1016851E8031F0268DB
:1025100021F0100142E80313002BF5D100214163A3
:10252000016B012918BFFFF7EDBC818DFFF710BAD1
:10253000806B01214163016B012918BFFFF7E4BCE7
:10254000818D4908FFF704BA90F84210222918BF7C
:1025500070478268B2F5805F02D1016900294AD0D4
:10256000816AB2F5805F07D00AB9026922B10268B8
:10257000526802F07F0201E0026852680A70816AC4
:1025800001318162C18D01390A04C18500D07047D3
:102590000168CA6822F02002CA60CA6822F4807208
:1025A000CA604A6922F001024A61202180F8421083
:1025B00000214163026B012A18BFFFF7A3BC81B061
:1025C000016300BF016851E8031F026821F0100198
:1025D00042E80313002BF5D101680A68D20606D53C
:1025E000002200920A680092496800910099818D4A
:1025F00001B0FFF7ADB90168826A49686FF35F21E6
:1026000022F8021B8262BDE7B0B50446006804F1FF
:1026100008030ECB0569194325F440552A4302618E
:102620006269E3691143C268194349F20C639A4332
:102630001143C1604169A26921F4407141F2004334
:10264000114340F48062C4F201039A42416102D115
:10265000FEF708FC01E0FEF7F1FBE1694FF69C751F
:1026600063681922C0F6FF75B1F5004FA0FB0201A7
:102670001CD15A00DB0FFDF70DFE48F21F51C5F2C9
:10268000EB11A0FB01235A0905F1805302FB030063
:10269000322303EBC000A0FB01014FF4F87000EA05
:1026A000111000EB0210C1F3421118E09A009B0FC9
:1026B000FDF7F0FD48F21F51C5F2EB11A0FB01231D
:1026C0005A0902FB0500322303EB0010A0FB0101B5
:1026D000F02000EA511000EB0210C1F3431108444E
:1026E00021688860B0BD0000F0B581B013460027B6
:1026F0000446816283854764222084F84200E06BAF
:1027000042F2B14542F231560A462168C0F6000550
:10271000C0F60006C0E90F5642F20D46C0F60006AC
:102720000431C0E91367FEF797F838B110206064F0
:10273000202084F84200012001B0F0BD00972068FD
:1027400001680091406800900098206950B100BF76
:10275000206850E8030F216840F4807041E80302CC
:10276000002AF5D1206850E8050F216840F00100EB
:1027700041E80502002AF5D1206850E8050F2168DC
:1027800040F0400041E80502002AF5D1002001B0E8
:10279000F0BD0000B0B540F2C014C2F20004204603
:1027A000FFF764FB2046FFF743F940F27825C2F2B9
:1027B000000500BF204629466422FFF791FB002850
:1027C000F8D1B0BDFEE700002DE9F0412DED108BF2
:1027D00020EEA0EA20EE00FA3FEE0EBA21EE01DA7A
:1027E000B0EE408A3DEE0B0AB1EEC0CAB0EE41AA8F
:1027F000B0EE609A90460D460646B4EE4CCAF1EE35
:1028000010FA80F1BB809FED6A0AF1EECB0A3FEE31
:10281000000A3EEE000A9FED671A3DEE000A80EEC8
:1028200001DAF4EE600AF1EE10FA80F1AC80B0EE5D
:102830004A0A00F03DFA8DEE0C1AB7EE003AB0EEFF
:10284000C12AB4EE432AF1EE10FA04DD9FED5C0AD2
:10285000002030602DE0B0EE40DAB0EE410A00F02A
:102860009BF9B1EECBCA3DEE000A86ED000AB4EE4C
:102870004CCAF1EE10FA80F18D8096ED000A00F05E
:102880006DFB9FED4DDA9FED4DEA20EE0D0A30EE27
:102890000C0A80EE0EBA96ED000A00F007FC20EE5E
:1028A0000D0A30EE0A0A80EE0E0AF0EE4B0A00F036
:1028B000FFF985ED000A96ED000A9FED42AA20EE91
:1028C0000A0A10EE100A00F099FF9FED370B57EC43
:1028D000104B22463B4600F0E1FD00F0ADFD3060BC
:1028E00095ED000A20EE0A0A10EE100A00F086FFAD
:1028F00022463B4600F0D2FD00F09EFDB0EE490AB4
:10290000F0EE480A286000F0D3F920EE0A0A10EE33
:10291000100A00F073FF22463B4600F0BFFD00F0B6
:102920008BFDC8F8000096ED000AB5EE400AF1EE06
:1029300010FA05DA9FED241A30EE010A86ED000A3E
:1029400095ED000AB5EE400AF1EE10FA05DA9FEDBA
:102950001E1A30EE010A85ED000A98ED000AB5EE68
:10296000400AF1EE10FA05DA9FED171A30EE010A6F
:1029700088ED000ABDEC108BBDE8F08100F05EFC34
:10298000B0EE40CA3FE7B0EE4B0A00F057FCF0EE65
:10299000400A4CE7B0EE4B0A00F050FCB0EE40CAE3
:1029A0006BE700BF00BF00BF182D4454FB21094056
:1029B00000A893450000A5C300002543000016436E
:1029C00000000000000034430000B44384B0FEF770
:1029D00085F8FFF71BFCFFF7B9FAFFF79BFAFFF743
:1029E000C7FAFFF753FBFFF79DFB40F23014C2F22A
:1029F0000004B427002540F6C4160020214600221A
:102A00004FF4FA73CDE900650297FFF765FB0120EB
:102A1000214604224FF4FA73CDE900650297FFF7CF
:102A20005BFB0220214608224FF4FA73CDE90065D2
:102A30000297FFF751FB032021460C224FF4FA7353
:102A4000CDE900650297FFF747FB40F2740740F2BB
:102A50006C24C2F200079620C2F200049FED3F8A68
:102A60009FED3F9A40F2000A9FED3EAA40F2000B14
:102A700040F27008A521C7E90050251D04F10806A1
:102A8000C4F2A02AC4F2023BC2F200080FF2D80935
:102A9000B96000BF97ED000A97ED011A97ED022A81
:102AA000B8EEC00AF8EEC10AB8EEC21A20462946AE
:102AB0003246FFF789FE94ED000AB4EE480AF1EEC3
:102AC00010FAC2BF0020C4F23430206094ED000A36
:102AD000B4EE490AF1EE10FAB8BFC4F800A094EDC4
:102AE000010AB4EE4A0AF1EE10FAC8BFC4F804B005
:102AF00094ED010AB5EE400AF1EE10FABCBF0020D9
:102B0000606094ED001A94ED010A38EE411A00203D
:102B100084ED001AFFF716FB4FF47A70FDF7ECFE18
:102B200094ED000A0120FFF70DFB4FF47A70FDF7DA
:102B3000E3FE94ED020A0220FFF704FB4FF47A70E3
:102B4000FDF7DAFE98F800000128484608BF043077
:102B500090ED000A0320FFF7F5FA9BE700003443ED
:102B60000000A042000002430000000000003443C7
:102B70004100080218BF04200A0E18BF40F00100EF
:102B80004FF07F4232EA010108BF40F00200012805
:102B900008BF05207047000010B510EE104A4FF036
:102BA0001A402DED028B00EB4400B0F1C85F4AD80B
:102BB0004FF0FC40B0EB440F22D2B0EEC00AF7EE6B
:102BC000000A30EEC00AF6EE000A20EE208A18EE67
:102BD000100A00F011FC00EE100A14F0004F1DBFA7
:102BE0009FED281ADFED280AB1EE400A9FED271A63
:102BF00008BFF0EE410AF8EE001A20EE210A05E0C7
:102C000020EE008A9FED221ADFED220ADFED221A64
:102C10009FED222A70EEC00A20EE080A08EE212A53
:102C2000DFED1F1A48EE021A9FED1E2A08EE212A38
:102C3000DFED1D1A48EE021ABDEC028B40EE610A70
:102C400030EE810A10BD4FF0CC40B0EB440F82BF94
:102C50009FED160ABDEC028B10BD4FF07F40B0EB2C
:102C6000440F05D2BDEC028BBDE8104000F003BB61
:102C70000120FDF7E8FBBDEC028BBDE8104000F041
:102C800001BB00000000494022AA7D3A000000007C
:102C90000000C93F22AAFD3924FE1C3DC78AD83C4A
:102CA0001E67383D1B93993DAFAA2A3EDB0FC93FF3
:102CB00070B54FF068422DED048BF0EE408A18EEAF
:102CC000900AB0EE608A18EE101A02EB4003B3F1DE
:102CD000654F3CBF02EB4102B2F1654F7DD200BFB0
:102CE000C0F3C753C1F3C7529A1A1B2A09DD10F06B
:102CF000004F14BF9FED830A9FED830ABDEC048B48
:102D000070BD12F11A0F36DA11F0004F09D010F031
:102D1000004F0CBF9FED7D0A9FED7D0ABDEC048B3B
:102D200070BD88EE889A19EE100AFFF721FF04287B
:102D300008BF00F0AFFA18EE900AFFF719FF05463A
:102D400018EE100AFFF714FF044619EE100AFFF7F9
:102D50000FFF042D18BF052D08D1042C18BF052C1A
:102D600004D1002804BF0220FDF76DFBB0EE490A34
:102D7000BDEC048B70BD4200B2EB410F3AD910F0AC
:102D8000004F19BFDFED630A9FED630ADFED630AB1
:102D90009FED630AB0EE481A0A46B1EE688A80F0E9
:102DA0000041F0EE418A10460A1A5200B2F1807FCB
:102DB00034D2484010F0004FDFED5A1A9FED5A2AE6
:102DC0001DBFBEEE001A70EEE10A30EE420AB6EE0A
:102DD000001A08BF70EEA10A00E040E008BF30EE24
:102DE000020AB0EE682A01EE482A08EE818AC2EE95
:102DF000081A15E011F0004F04BF9FED4C0AF0EEE9
:102E0000400AD1D010F0004F19BFDFED490A9FED05
:102E1000490ADFED490A9FED490AC5E7C8EE881A5D
:102E200021EEA11A9FED462ADFED462A41EE022A45
:102E30009FED452A01EE222ADFED442A41EE022AC7
:102E40009FED432ABDEC048B01EE222A21EE811A6C
:102E500001EE020A30EE210A30EE200A70BD4FF07A
:102E60007F42B2EB400F28BFB2EB410F09D2F0EE28
:102E7000480AB0EE680ABDEC048BBDE8704000F073
:102E8000FDB940EA01035B0008BF41F0FF410BD0F0
:102E9000B2EB400F08BFB2EB410F08D120F08040E9
:102EA00008EE900A21F0804108EE101A18E7B2EB04
:102EB000400F12BF5FEA410340F0FF4001F00041C4
:102EC0003FF40EAFB2EB410F12BF5FEA400200F0D9
:102ED000004041F0FF413FF403AF4A0092EA400353
:102EE0003FF5FEAE002AACBF9FED1A0A9FED1A0A0D
:102EF00068EE808A28EE008A18EE900A18EE101A02
:102F0000EEE60000DB0FC9BFDB0FC93FDB0F494016
:102F1000DB0F49C00000C9BF22AAFDB90000C93FAC
:102F200022AAFD390060ED3EC30ACE370000000042
:102F3000000049C022AA7DBA0000494022AA7D3A79
:102F40002DAD65BD8FB8D53D0FB511BE61C84C3EE6
:102F5000A8AAAABE0000804F0000802F10EE101A11
:102F600008B5444A6846B2EB410F28D94FF0E64015
:102F7000B0EB410F94BF00204FF0FF30009000985D
:102F8000002861DB60EE000A10F0010F45D010F060
:102F9000020FDFED391A9FED391A00EEA11ADFEDAD
:102FA000381A40EE811A21EEA01AF0EE400A40EEE7
:102FB000010A08BFF1EE600AB0EE600A08BD314BAD
:102FC00021F0004293423CD911F0004FDFED2E0A70
:102FD00020EE201ADFED2D0A19BF31EE601A71EED6
:102FE000200A31EE201A71EE600ABDEEE01A11EEF1
:102FF000100A9FED271A00F0030000EEC10A9FEDB2
:10300000251A009000EEC10A9FED231A00EEC10AB6
:103010009FED221A00EEC10AB1E79FED211A9FED44
:10302000210A10F0020F00EE810A9FED1F1A00EE38
:10303000801AB7EE000A00EE810A18BFB1EE400A0E
:1030400008BD00F02FF99AE710EE100A4000B0F129
:103050007F4F3CBFB7EE000A08BD07D14FF001001B
:10306000FDF7F1F9BDE8084000F00CB9BDE80840F3
:1030700000F001B9B61F927E336D4CB9DA82083C7C
:10308000A0AA2ABE490E494683F9223F0000004B00
:103090000000C93F00A0FD390020A2331A61342C82
:1030A000B93AB2BACA9F2A3DDDFFFFBE00B510EEA5
:1030B000101A2DED028B81B0524A6846B2EB410FD7
:1030C0002ED94FF0E640B0EB410F94BF00204FF0F7
:1030D000FF3000900098B0EE408A00286ADB10F0C4
:1030E000010F4BD068EE080A9FED471A9FED470A83
:1030F00000EE810A9FED461A10F0020F00EE801AD2
:10310000B7EE000A00EE810A02BF01B0BDEC028BEF
:1031100000BD00BF01B0B1EE400ABDEC028B00BDA6
:103120003C4B21F00042934241D911F0004FDFEDBA
:103130003A0A20EE201ADFED390A19BF31EE601A83
:1031400071EE200A31EE201A71EE600ABDEEE01A2F
:1031500011EE100A9FED321A00F0030000EEC10AD2
:103160009FED301A009000EEC10A9FED2F1A00EE7D
:10317000C10A9FED2E1A00EEC10AABE728EE080A3D
:103180009FED2B1ADFED2B0A10F0020F40EE010A23
:103190009FED291A00EE201A61EE000AB0EE480AEF
:1031A00008EE200AB6D101B0BDEC028B00BD00F0E4
:1031B00079F88FE718EE100A4000B0F17F4F0DD27A
:1031C00018EE100AFFF7D4FC042808BF00F062F8DC
:1031D000B0EE480A01B0BDEC028B00BD09D1012060
:1031E000FDF731F901B0BDEC028B5DF804EB00F0A6
:1031F00049B801B0B0EE480ABDEC028B5DF804EBB3
:1032000000F039B8B61F927EB93AB2BACA9F2A3DC9
:10321000DDFFFFBE490E494683F9223F0000004B07
:103220000000C93F00A0FD390020A2331A61342CF0
:10323000336D4CB9DA82083CA0AA2ABE10B52DED38
:10324000028BB1EEC08A18EE100A20F00040C0F1E7
:10325000FF40C00F0AD010EE100A20F00040C0F16D
:10326000FF40C00F04BF0120FDF7EDF8B0EE480AA3
:10327000BDEC028B10BD30EE000A704730EE200A24
:1032800070470000DFED020A80EEA00A70470000E0
:10329000000000009FED020A20EE000A70470000C7
:1032A000000000102DE9F0014FF07F42B2EB410F1A
:1032B0009FBF4FF0FF310160BDE8F00170474FF054
:1032C000004242EA0123C1F3C752783A551112F085
:1032D0001F0C434CCCF120067C44C1F3C752A2F131
:1032E00078024FEA621204EB820254F8254008BFCC
:1032F000D2E9015612D0556804FA0CF425FA06F703
:103300003C43976805FA0CF527FA06F8D26807FAE5
:103310000CFCF24045EA08054CEA0206A4FB034C0B
:10332000A5FB0352A6FB03631D449D4234BF012647
:1033300000261319334416B1934202D903E0934295
:1033400001D2012200E00022624402F1200C920628
:10335000DC0C42EA443200EE102A5B03DFED210A66
:10336000F8EEC01A00EE103A4FEA9C1C11F0004F24
:10337000B8EE400AC0F800C020EE201A00EE105A45
:10338000DFED190AB8EE400A20EE200A71EE810A3C
:1033900070EE800A10EE902A02F500626FF30B02C5
:1033A00000EE902A70EEE11A31EEC11ADFED101A2C
:1033B00030EE411A9FED0D0A20EE800A01EE210A3F
:1033C0009FED0C1A00EE810A04BFBDE8F0017047C2
:1033D000CCF180510160BDE8F001B1EE400A7047C8
:1033E00028060000000000360000802C22AAFD29DB
:1033F000DB0FC92F0000C92F10B500EE100A2DED0C
:10340000028BB1EEC08A18EE100A20F00040C0F125
:10341000FF40C00F0AD010EE100A20F00040C0F1AB
:10342000FF40C00F04BF0120FDF70DF818EE100A91
:10343000BDEC028B10BD000021F0004201F0004302
:10344000A2F16052B2F5801F28BFD2F17F6C0BD978
:103450005FEA001C43EAC20242EB507018BF70479B
:1034600028BF20F001007047B2F5801FBCBF18468E
:1034700070474FEA410C1CF5001F02D2084600F0CD
:103480003BBA70B500F066F900000089FFF7F6BF9F
:103490004FF00040A0F58000704700002DE9C041CA
:1034A00030B4DFF8A8C23CEA111418BF3CEA131488
:1034B00000F0F0801CEA111481EA030544EAD57497
:1034C00018BF1CEA131500F0CB80A4EB050404F12F
:1034D0007F7404F500344FF0004545EAC12145EA08
:1034E000C32341EA505143EA52534FEAC0204FEA06
:1034F000C222994208BF904200F0A0804FEA1365B3
:103500000FF24816765D4FEA134506FB05F7C7F143
:10351000807706FB07F74FEAD737A7FB03687642A9
:10352000A7FB06CEC8F5803838BFA8F1010807FB15
:1035300008E6A6FB028C4FF0000EE6FB03CED8F1A6
:1035400000086FEA0C0C5CF1000C6FEA0E0E4EF1F5
:10355000004EA6FB0C584FF00007E6FB0E87A1FBC0
:1035600008C6A0FB07CE16EB0E064FF0000545F18E
:103570000005E1FB076515F1E04E7EBFA4F5803440
:103580005FEA46066D4116F1800745F100054FEAF6
:10359000172747EA05674FEA15254FEA0666A6F1A1
:1035A000DE46B6F1805F20D9384605EBC47124F0C1
:1035B000010C01EB0C11BCF1FE6F02D8F0BCBDE8B0
:1035C000008124425CBF01F5801E9EEAC47F02D4C4
:1035D000F0BCBDE80081244200F13980A1F1C04176
:1035E000F0BCBDE8004100F003B94FEAD02040EA4A
:1035F00041504FEAD1214FEAD22242EA43524FEAE8
:10360000D323A7FB028607FB036605FB02661EEABF
:103610000E0F58BFA6EB0056B6EB00564FEA520EFF
:103620004EEAC37E18EB0E0E56EB530EBCD518EBCC
:1036300002085E417F1C55F10005B5E74FF4801587
:103640004FF000074FF000064FF00008ACE701F123
:10365000C04101F000414FF00000F0BCBDE8008126
:103660000CEA131511EA0C1F00D00CE013EA0C1F32
:1036700000F025804FF0000081EA030101F00041D5
:10368000F0BCBDE80081F0BCBDE8004181EA030167
:1036900000F0AEB8F0BCBDE8004170B500F05AF8DB
:1036A000097EFC3E00F007B84FF0000081EA0301FC
:1036B00001F00041704781EA030100F099B8F0BCC5
:1036C000BDE8004122494FF000007047FFFDFBF9C3
:1036D000F7F5F4F2F0EEEDEBE9E8E6E4E3E1E0DE45
:1036E000DDDBDAD8D7D5D4D3D1D0CFCDCCCBCAC8B7
:1036F000C7C6C5C4C2C1C0BFBEBDBCBBBAB9B8B7DE
:10370000B6B5B4B3B2B1B0AFAEADACABAAA9A8A8D0
:10371000A7A6A5A4A3A3A2A1A09F9F9E9D9C9C9B9E
:103720009A99999897979695959493939291919049
:103730008F8F8E8E8D8C8C8B8B8A898988888787DA
:103740008685858484838382828181800000FF074F
:103750000000F87F0EF1020E2EF0030E5EF8046BEF
:10376000364205D4012A43EB030515F5001F12D894
:10377000012841EB010C1CF5001F0CD80ED14FEABB
:10378000D17C0CEB4C0C0CF1020C15F5001F08BFA2
:103790004CEBD37C04E04FF0080C01E04FEAD37C03
:1037A0000CEB4C0526FA05F606F00706B6F1040CFC
:1037B00006D20EEB860CBDE870404CF0010C604761
:1037C000DFE80CF0090B02024FF00041A1F50021E7
:1037D0004FF0000070BD19461046012851EB01045E
:1037E00018BFD4F5001484BF002001F0004170BD63
:1037F0000808A0F500114FEA3101704743004FEA75
:10380000D30C4FEA3C0C43401FBF40070CF1605102
:1038100013F0FE4F70471CF0006F03D10CF0004115
:10382000002070470CF0004343EA507040EACC009F
:1038300010B500F00EF800BF000000924FEA000142
:10384000FFF7D6BF4FF00041A1F500214FF0000077
:1038500070470EF1020E2EF0030E5EF8044B244268
:1038600004D44FEA4102B2F17F4F11D84FEA40032E
:10387000B3F17F4F0CD80ED14FEAD07C0CEB4C0C3F
:103880000CF1020CB2F17F4F08BF4CEBD17C04E08D
:103890004FF0080C01E04FEAD17C0CEB4C0324FA0A
:1038A00003F404F00704B4F1040C06D20EEB840C0C
:1038B000BDE810404CF0010C6047DFE80CF0070851
:1038C00002024FF00040A0F5800010BD0846420003
:1038D00018BFD2F1807288BF00F0004010BDF1EE39
:1038E000100A4FF6FF71C0F2C03120EA010040F02B
:1038F0004070E1EE100A7047FF2141EAD050C00548
:1039000070470000000000006E83F9A22915444EA4
:10391000D15727FCC0DD34F5999562DB4190433CDB
:10392000AB6351FE00000000000000000102030430
:103930000607080900000000010203040006101633
:103940000006101668390008000000201000000072
:10395000EC0100087839000810000020D8080000A9
:103960000C020008000000000024F4000100000028
:0839700010000000000000003F
:040000050800018965
:00000001FF
